:020000040000FA
:10000000FC7F0020790B0000690B00006D0B0000E5
:1000100000000000000000000000000000000000E0
:10002000000000000000000000000000710B000054
:100030000000000000000000750B0000CD0C000067
:1000400010B5064C2378002B07D1054B002B02D0AE
:10005000044800E000BF0123237010BD5C000020B5
:1000600000000000D01E000008B5084B002B03D094
:100070000748084900E000BF07480368002B03D089
:10008000064B002B00D0984708BDC046000000007A
:10009000D01E00006000002058000020000000007A
:1000A000064B0322104002040549586808401043DB
:1000B0005860DA695107FCD47047C0460008004216
:1000C000FFFFFCFF38B5284A284B5A805A7852B2B5
:1000D000002AFBDB264B04211A6A264D0A431A62CA
:1000E0002B68012213432B602A680123214C1A42FA
:1000F000FAD1E2691A42F7D11423236041001E4865
:1001000001F008FD421EE068FF231A4098431043A7
:10011000E0602368022213432360EA69154B9107CC
:10012000FBD45A8B30218A4310210A435A83EB694E
:1001300001205A07FBD4114B02241A7802431A708B
:100140000F4B0F22197891431970197821431970B8
:100150000C490C782043087019780A401A701A78F4
:1001600020210A431A7038BD14400000000C0040E2
:100170000004004000080042006CDC0248440041DA
:100180003444004149440041F7B500230F1C01925B
:100190001D1C994254D001212A4E4000084333705F
:1001A000C1B2294B0322588B1C1C000910400128A6
:1001B00004D05B8B1B091A40022AF2D1606AC00A84
:1001C000C00208436062217E1F4B0122880708D4C9
:1001D000197E1142F7D05968C02292020A435A6030
:1001E00003E05B8B9B08134201D0002528E03270AE
:1001F000237E9907FCD5154A154B117801251970F6
:100200006268BD4212D0134B022013406360FFF7B7
:1002100047FF33785A1C3270227E9007FCD50B4979
:100220000B480A780135C254EDB2E9E78023DB02BE
:10023000134363600199002902D00320FFF730FFC8
:10024000281CFEBD7800002000080042280800425B
:1002500099000020FFFFFBFF024B00221870024BA9
:100260001A7070477A00002079000020F8B5274BFB
:100270001C786400E4B2264B03215D8B1A1C2D0907
:100280000D40012D04D05B8B1B0919400229F2D1CE
:10029000536ADB0ADB0223435362117E01231942B6
:1002A000FBD01B49498B8908194204D00320FFF772
:1002B000F7FE022427E017490D782B1C002B11D0E4
:1002C000154EEC1A365D154C2670114E177E012422
:1002D000768B274202D12642F7D00BE0B6082642A1
:1002E0000ED007E00B701C1C00280CD00320FFF779
:1002F000D7FE08E003200B700324FFF7D1FE02E0D5
:10030000013BDBB2DAE7201CF8BDC0467A000020D2
:1003100000080042790000207B00002028080042ED
:10032000034A1378591C1170024AD05401207047B7
:10033000790000207B000020154A164B1178002917
:1003400009D11549187809784118C9B21970802067
:1003500012494003C86111780131C9B2117019788E
:10036000F02902D81978092909D80B4908784042A0
:10037000C0B20870187809784118C9B2197012789B
:100380001B789A4203D18022044B5203DA617047F2
:100390007D000020010000200000002000440041FA
:1003A00010B5041C6B20FFF757FF201CFFF7B8FFA8
:1003B0000120FFF75BFF01210A1C6B20FFF7E4FE21
:1003C000014B187810BDC0469900002038B5051CB7
:1003D0006B200C1CFFF740FF281CFFF7A1FF201C1F
:1003E000FFF79EFF0120FFF741FF022038BD08B54F
:1003F0000520FFF7D5FFCE23011C19400520FFF78C
:10040000E5FF012008BD000010B5041C0020FFF727
:10041000C7FF78232D4A9843C1B2944242D018D8DE
:100420002B4B9C4238D009D82A4B9C4230D02A4BC7
:100430009C422FD0294B9C4245D13FE0284B9C4207
:100440002CD0284B9C422BD0274B9C423BD12023C5
:1004500033E0264A94422BD00AD8254B9C4223D025
:10046000244B9C4222D0244B9C422CD1402324E09C
:10047000224A94421ED004D8214B9C4223D16023AF
:100480001BE0204A944217D01F4A944215D01AE02C
:10049000082312E0102310E018230EE028230CE0BC
:1004A00030230AE0382308E0482306E0502304E024
:1004B000582302E0682300E0702319430020FFF76F
:1004C00085FF012000E0002010BDC046581100004B
:1004D00018100000780F0000C80F0000280F00005F
:1004E000B810000008110000681000009812000009
:1004F000F811000048120000A81100003813000095
:10050000E812000088130000D813000010B5041C86
:100510000020FFF745FF07239843E122C1B2920074
:10052000944220D008D8962C18D0FA235B009C4225
:1005300017D0642C22D11CE0114A944215D005D862
:100540009623DB009C4219D1042311E0FA22D20049
:1005500094420CD00B4A94420AD00FE0012421436C
:1005600007E0022304E0032302E0052300E0062362
:1005700019430020FFF72AFF012000E0002010BDF2
:10058000DC050000B80B000070B504AC267805ACA3
:100590002578441EA041C401002901D040210C430C
:1005A000002A01D020221443002B01D010231C4329
:1005B000002E01D008231C43002D01D004231C432E
:1005C0000220FFF7EDFE0125011C294021430220F6
:1005D000FFF7FCFE281C70BD10B5041C0420FFF7BB
:1005E000DFFE03231840084B9C4204D0074B9C427B
:1005F00008D1B02100E0982101430420FFF7E6FE76
:10060000012000E0002010BD10100000701000005C
:1006100008B50120FFF7C4FECF23011C19400120BB
:10062000FFF7D4FE012008BD07B5FFF7E0FEFFF796
:10063000EFFF0948FFF7E8FEFA20C000FFF766FF6A
:10064000002300930193181C191C1A1CFFF79CFF30
:100650000248FFF7C1FF07BD08110000101000009D
:1006600008B50348FFF72EFDFFF7DEFF08BDC046C3
:10067000A086010010B5C3699C07FCD4036802245E
:10068000A3430360C46901231C42FBD104682343D4
:1006900003600368DC07FCD4C46901231C42FBD15E
:1006A000C469DC401C42F7D1084B1A430260C3699D
:1006B0005A07FCD4C0239B0243608181C3699C0715
:1006C000FCD4036802221343036010BD0400004001
:1006D000037EDA07FCD5018570470000027E012306
:1006E0005107FBD5428B1A4207D1428BDA401A429E
:1006F00003D1428B92081A4202D0034B01221A7096
:10070000008DC0B27047C0467E00002070B50368FF
:10071000041C988B1A1C0821FF32084226D0802026
:1007200099839872112353704021144B9171507129
:100730005E68134DC0202E40800506435E605E69F2
:100740003540284358610F4818600F4818615D68AC
:100750000E4828408025AD02284358605868800B19
:100760008003586000235171237105E0137ADA0683
:1007700002D5201C00F0E4FA207970BD9C01002015
:10078000FFFFFF8F9C0000201C010020FF3F00F0B6
:10079000002303714371044B016083600B780222D4
:1007A00013430B707047C0460D07000038B5364B39
:1007B0002021DA6901200A43DA61344B06241A78D1
:1007C00002431A70324B0F2219789143197019782D
:1007D000214319702F490C782043087019780A407A
:1007E0001A701A7860210A431A702B4B2B4A5A80D0
:1007F0005A7852B2002AFBDB294B01211A780A43AE
:100800001A709A78D107FCD426480268510B1F222F
:100810001140914200D1052111408C011D8D2249CA
:100820002940214319850468A10C0A401F2A00D1E0
:100830001D221C8D1F210A408C4322431A85026809
:100840000721D20D0A408A4200D103220A40188DA6
:100850001103164A02400A431A8519787F220A407A
:100860001A701A78042112480A431A7058621A89B9
:100870000C218A431A811A8901218A431A81002195
:10088000802201F0A0F938BD000400405844004126
:100890003C44004159440041000C00400640000027
:1008A00000500041246080003FF8FFFFFF8FFFFFF2
:1008B0009C010020F7B5141C1F4A5F0101971D1C05
:1008C000D319061C5869271C4000400F0330103311
:1008D000C74006D00F1C8022596812060A435A608E
:1008E00009E02F1C7B1E9F41144BBF01FF18381CD1
:1008F000221C01F05FF901990F4808354218176171
:10090000131C5269A104920B890C92030A435A6189
:1009100059690B4A0A405A616B01F3180222DA71D5
:100920005979802252420A435A716B01F318DB79DC
:100930009A07FAD5201CFEBD9C0100201C01002056
:10094000FF3F00F0F8B51A4E051C3378141C002B3D
:1009500012D1184B184A1A645A6C920B92035A64BB
:10096000586C164A02405A64A2235B00EA5C40209D
:100970000243EA54012333704827FF37EA5D01231D
:10098000134012D00B4B5A6C9204920CA24202D22A
:100990005C6CA404A40C081C221C074901F00AF991
:1009A0000123EB550023337000E01C1C201CF8BD14
:1009B0007F0000209C010020DC000020FF3F00F0B1
:1009C000FF3083792022002900D110221343837144
:1009D00070470000084BFF305A69920B92035A612E
:1009E00002230372827980235B4213438371037A6B
:1009F0009A07FCD57047C0469C01002080235B42CB
:100A00001943C9B28172704770B5A02303225B00FD
:100A1000C254134B134A5C6CC021144089050C432B
:100A200046255C64FF35402444550F4D30261D6437
:100A300090256D0046555D6B1540294392255963FD
:100A40006D0080214155094D1D63B0256D00445551
:100A50005C6F22405A67B2235B00C15470BDC04630
:100A60009C010020FFFFFF8FDC0000205C010020C4
:100A7000024B5B785BB2002BFADB7047000C004046
:100A8000024BDB68DA06FBD57047C0460008004021
:100A9000F8B52A4B1E22596891430222114359602E
:100AA000274B28491E1C9982998A0A439A82F36827
:100AB0000227234C3B42FAD0234D0123AB60FFF7C2
:100AC000D7FF224B6B60FFF7D3FF8223DB016B80E4
:100AD000FFF7CEFFA38C80229343A384FFF7D0FFC0
:100AE0001B4BE362FFF7CCFFA38C1A4A1343A3848A
:100AF000FFF7C6FFA38C1F43A784F3681A06FCD533
:100B00000F4BDB685A06F8D50024FFF7B9FFAC603D
:100B1000FFF7AEFF104B6B60FFF7AAFF0F4B104AB9
:100B2000C0215A600F4A0906106A0002000A0143F8
:100B3000116207229C601A60F8BDC0460040004167
:100B4000000800400C060000000C004001050100F8
:100B5000B805FF7D040A00000007030010E000E074
:100B6000E703000000ED00E00EBEFEE70DBEFEE76D
:100B700005BEFEE702BEFEE70E4A0F4838B58242C8
:100B800004D10E4A0E4B93420ED10AE00D4C944212
:100B9000F7D00023D1188842F3D9E55804330D600B
:100BA000F8E700F011F804E09342FAD2002102C302
:100BB000FAE7FEE7000000205C000020AC03002004
:100BC0005C000020D41E000038B5344D2B68013382
:100BD0001AD0334B2A1D1A60EAB2002A14D1314BC5
:100BE000197801231940304B0AD118682F4A9042D6
:100BF00001D1196008E01A602D4A013A002AFCD19F
:100C00001A602C4B01221A70FFF742FF62B6FFF701
:100C100027FD284B284C1B78002B0AD02B6883F328
:100C200008881E4BFF229343A3601D4B1B681B6863
:100C3000184700F09DFD00F04FF8204B8022520332
:100C40009A601F4B1F4A051C5A60216AC022090284
:100C5000090A12060A43226200229A6007221A60D9
:100C6000AB68281C9847184B002801D001221A7045
:100C70001A78002A05D0002000F08CFA00F004FB5E
:100C8000FCE71B78002BEBD100F0E6FD0028E7D055
:100C9000012000F07FFA00F0F7FAFCE700200000E6
:100CA0001C02002038040040FC7F002035817307BF
:100CB00048E801008000002000ED00E00044004111
:100CC00010E000E0E70300008100002008B5FFF716
:100CD00033FB00F0C3FA08BD10B5054B054C23608B
:100CE000FFF764FD201C2168FFF752FD201C10BD9A
:100CF000005000412002002070B5051CC0B0081C47
:100D0000161C0C1C00F067FF40006A4603230230EB
:100D10005370107076080123E218013A11785A00D6
:100D2000002906D1281C69460023FFF7C3FD40B007
:100D300070BDB342F6DA684681520133ECE7000039
:100D4000F7B5BA4A04681378B949271CFF37051C60
:100D5000102038720B705378B648B74E03709378F2
:100D60003380D178338809020B4333801179B34B38
:100D70001980517918880902084318809079B04980
:100D80000880D2790888120202430A8040227A71D0
:100D9000A84F3A78A64F120238780F1C0243A94890
:100DA0008446181C624500D1C2E020DC8021490045
:100DB0008A4200D16EE109DC812A00D192E0822AC8
:100DC00000D195E0802A00D064E18BE081235B00B4
:100DD0009A4200D1CFE000DA58E1C0239B009A424A
:100DE00000D157E1984B9A4200D14FE152E1902354
:100DF0001B019A4269D015DCD023DB009A4222D035
:100E000088231B019A4269D0A023DB009A4200D0BC
:100E100040E1201CFFF7DEFD3188286889B2FFF72A
:100E2000EDFD3BE1894B9A4200D12FE100DC31E13D
:100E3000874B9A4200D11DE1864B9A4200D029E1AE
:100E400033886B7122E133881B0A012B08D10B8890
:100E500012222868934201D80A8892B27E4911E191
:100E600033881B0A022B08D10B884322286893423F
:100E700001D80A8892B2794904E133881B0A032B0E
:100E800000D007E13388DBB2012B17D0002B07D04D
:100E9000022B00D0FEE00A882868D2B2704911E027
:100EA000042201A86F4900F085FE3B8804222868CF
:100EB000934201D83A8892B201A9E3E00A882868EF
:100EC0006949D2B2FFF718FFE8E03388201C2B7184
:100ED000FFF780FD201CFFF797FDDFE0291C01C90B
:100EE0000122CFE0614900230B8028680222CAE07A
:100EF0005E4900220A801888502210405C4A107017
:100F00001E880F20304018801888032800D9C1E0BF
:100F100012781B8808335B01E418A379002A01D0FA
:100F20009B0600E0DB06DB0F0B8028680222A9E0AD
:100F300019887F2291434E4AC9B2117018880F2137
:100F4000014019803188002900D0A3E019880029C8
:100F500000D19FE01988032900D99BE012781B88F3
:100F600008335B01E318002A02D020225A718DE079
:100F7000102159718AE002887F239A433C4BD2B2F8
:100F80001A7001880F220A4002803288002A00D09D
:100F900080E00288002A00D17CE00288032A00D980
:100FA00078E01B78002B1FD0038808335B01E3181F
:100FB0009B799A066AD50388202208335B01E318DF
:100FC0001A71038808335B01E318DB795F065DD58E
:100FD0000388402208335B01E318DA710388022298
:100FE00008335B01E3181EE0038808335B01E31854
:100FF0009B79D9064AD50388102208335B01E31890
:101000001A71038808335B01E318DB799A063DD532
:101010000388202208335B01E318DA710388012278
:1010200008335B01E3181A7130E0C0469C000020D1
:1010300083000020880000208A0000208C0000200F
:1010400086000020020300000103000021200000B0
:10105000A121000021220000241C00000400002027
:101060000C1C0000FC1B0000001C00008400002081
:10107000820000200B8808222868934201D80A8841
:1010800092B207490023FFF715FC07E0201CFFF789
:10109000A1FC03E0201C0121FFF792FCF7BDC04634
:1010A0004800002007B5054B0122019001A91868EE
:1010B000131CFFF7FFFB01200EBDC04620020020DD
:1010C00013B5054B6C4607341868211C0122FFF745
:1010D00039FC207816BDC0462002002010B5074C10
:1010E000201CFFF713FB031C0020834205D022685D
:1010F0004823FF33D05C0123184010BD200200209C
:1011000010B5054A0C1C031C191C10680123221C75
:10111000FFF7D0FB201C10BD2002002070B5084C4A
:10112000061C201C0D1CFFF7F1FA0023984205D085
:101130002068311C2A1CFFF705FC031C181C70BD1D
:1011400020020020F8B50C4C051C201C0E1CFFF7DB
:10115000DDFA0023271C341C98420AD0002C07D04B
:10116000291C221C3868FFF7EDFB241A2D18F5E71F
:10117000331C181CF8BDC0462002002008B5031C13
:10118000081C111C9847024B64221A8008BDC046F7
:1011900092000020012805D1054B064A1A60064B33
:1011A000187004E0002802D1044A014B1A6070470D
:1011B00090020020581C000098000020A41C000091
:1011C00030B50A1C1C4985B00978031C00292AD0B7
:1011D000042A01D1006804E0022A01D1008800E05D
:1011E0000078520004A98B180B3B9C1AA3420BD029
:1011F0000F210140092902D83025294300E0373169
:1012000019700009013BF1E701A930230B70782325
:101210004B700A208B1898700D20D870074B043241
:101220001B68D86803E005490968C868191CFFF7FE
:10123000A5FF05B030BDC0468E0000209002002002
:1012400072B6EFF30883044A1360036883F30888D7
:10125000436818477047C04694020020084B1A881C
:10126000002A03D01A88013A92B21A80054B1A88D4
:10127000002A03D01A88013A92B21A807047C046F9
:101280009200002090000020F0B591B008A9CC4A4F
:101290000B1C31CA31C351CA51C360CA60C3C94BA8
:1012A000C9489A687A255203520F92005258C7498A
:1012B00002609C68A4B262430C60C54900240A60C5
:1012C000C44A1460C44C2570C44CC54D2368281C06
:1012D0001B6940219847002802D0C24B64221A8023
:1012E000C14B00221860C14B1D60C14BC04DBE4FA9
:1012F0001A602A683B689A42E6D2BC4B1B681A788F
:10130000FF2A00D114E2232A00D0EBE1B94E337852
:10131000002B06D0B14BB8491B680222D868FFF7F2
:101320002DFFAD4B1B78532B3CD13B682A68934271
:101330001ED9AE4801322A609A1AB04B01681B6868
:1013400001310160AE4E9A4201D2326000E033605A
:10135000A04832680068049000F02CFC33682968CB
:101360005A182A60A14A1668F1181160A54A13702C
:101370002B68013B2B609D4B1A68013A1A60A14B08
:101380009E4A1B7811688B420AD222689148C91A7A
:10139000006892699047002802D0924B64221A801C
:1013A000C0468DE1522B0AD18A48944A23680068CE
:1013B00011685B69039098476422934B0DE04F2BB3
:1013C00005D1844B8D4A1B6812681A7078E1482B4E
:1013D00005D1804B894A1B6812681A8070E1572B2F
:1013E00005D17C4B854A1B6812681A6068E16F2B37
:1013F00003D1784B0121186807E0682B08D1754BA1
:101400007E481B6802211B880360FFF7D9FE57E165
:10141000772B06D16F4B79481B6804211B6803604A
:10142000F3E7472B13D1754B1868FFF709FF774B8C
:101430001B6883F3088862B6754B1B78002B00D1BC
:101440003EE1664B06201B681B68984738E1542B29
:1014500004D101233370614B1B6864E04E2B0CD127
:101460003378002B06D15D4B63491B680222D86894
:10147000FFF784FE0023337022E1562B57D12368F7
:101480006449D8680122FFF779FE23686249D86869
:101490000322FFF773FE614D2368291CD8680122DF
:1014A000FFF76CFE23685E49D8680D22FFF766FEE1
:1014B0002368291CD8680122FFF760FE4B4F4C4D72
:1014C0005849002339602B603A1C281C13685E1CA5
:1014D00016601B780593002B03D00368013303606B
:1014E000F4E73E4E2A683368D868FFF747FE336852
:1014F0004A49D8680122FFF741FE059929604A4907
:1015000039603A4A1368581C10601B78002B04D0CD
:10151000374B1A6801321A60F3E733682A68D868D3
:10152000FFF72CFE3368D86833490222C6E0334AFD
:10153000582B17D1244E264D366813682A68B100FF
:1015400093420AD21F4D5808E861384828801D4D43
:10155000287DC607FBD55B18F2E7204B34491B6892
:10156000D868AAE0592B79D112681A4B3149002A60
:1015700002D11B680B606CE0124D086819686B683B
:10158000104E8025AB4392087360002A61D02A4B2D
:101590000C4D2B800B4E337DDD07FBD500230A4D10
:1015A0002D680195AD08AB4203D3244D054E35801F
:1015B00046E09342F9D09D00465901334E51EEE783
:1015C000381C00000040004148020020400200207A
:1015D0003C0200208C0200203802002090020020F3
:1015E0004C02002090000020300200203402002035
:1015F000440200208E000020981C00009802002069
:101600009C0200202C020020920000209402002066
:1016100098000020741C00009D1C0000761C000037
:10162000C01C0000781C0000841C000002A5FFFF05
:101630008D1C00009400002044A5FFFF04A5FFFFBF
:101640003F4E357DEE07FBD59D0049194019D21A52
:101650009BE73C4B3C491B68D8682EE05A2B2FD1A6
:101660003A4B17681D680026EF19BD4206D028784E
:10167000311C00F013F90135061CF6E7314B3449F3
:101680001B680122D868FFF779FD07230F2232403B
:10169000111C36093031092A00DD07311820C01825
:1016A0006A468154013BF1D2236806A9D868082212
:1016B000FFF764FD23682749D8680322FFF75EFD22
:1016C000254B7A221A70254B00221A60244B1B7876
:1016D00093422DD01B4B23491B680122D868FFF78A
:1016E0004DFD25E0111C3039C8B21C4B092804D827
:1016F0001D682A01114319601AE0111C413905299E
:1017000003D81E68373A310106E0111C61390529FA
:1017100004D81868573A01010A4308E02C2A03D17B
:101720000A4A1968116001E00B490A7000221A6028
:101730000D4B1A6801321A600C4B1A680132D5E55C
:101740000040004190020020911C00008C0200200B
:10175000951C0000971C0000380200209802002011
:101760008E0000209B1C0000440200203402002058
:1017700010B51C4B01201A78032402431A701A4B2F
:101780000F2219789143197019782143197017495C
:101790000C782043087019780A401A701A783021A2
:1017A0000A431A70124B80211A6A0A431A62114BBB
:1017B000114A5A805A7852B2002AFBDBC4220F48E1
:1017C0000F499203FEF756FF0E4A002313700E4A8C
:1017D00013700E4A13700E4A13700E4A13700E4A9D
:1017E000137010BDD6440041BB440041D7440041B2
:1017F00000040040000C004019400000001C0042A2
:101800002AF60000A002002027030020A1020020E9
:10181000A4020020280300202503002008B5C1B23F
:101820000248FEF755FF012008BDC046001C0042DB
:10183000024B187E4007C00F7047C046001C004294
:1018400008B5FFF7F5FF0028FBD00248FEF746FF7A
:1018500008BDC046001C004208B5FFF7E9FF0023A1
:10186000984205D0FFF7ECFF031C233B5A4253413B
:10187000181C08BD70B5041C0D1C4618B44204D0D9
:101880002078FFF7CBFF0134F8E7281C70BD10B5B6
:10189000041CFFF7D5FF2070012010BD0B0A584033
:1018A000034B4000C05A0902484080B27047C0460E
:1018B000CE1C0000F7B50024051C0F1C261CBC42E2
:1018C00020D0FFF7BDFF114BC0B21B780190002B59
:1018D0001AD1311CFFF7E2FF0D4B061C1A88002AB3
:1018E00004D10C4A11782A1C002907D001996A1CDE
:1018F0002970802F02D11988013919800134A4B2CE
:10190000151CDCE7301C00E00120FEBD2503002093
:10191000A202002026030020F0B53E4E85B0002232
:1019200003900C1C32703C4B914201D1012201E02A
:101930003A490C801A707F231C4201D080349C43AA
:10194000FFF77EFF3378C0B2002B07D0002535703B
:10195000FFF776FF3378C0B2AB4236D1432803D0CD
:10196000712853D01528EBD1012300930120FFF7F4
:1019700055FF0098FFF752FF00998025C843C0B279
:10198000FFF74CFF039B00270293244A1388002B88
:101990001DD1214901930978002918D10198FFF739
:1019A0003DFF391C0198FFF779FF013D071C002D11
:1019B000EBD1000AC0B2FFF731FFF8B2FFF72EFFFC
:1019C000FFF73EFF3378002B0AD035701FE00299F5
:1019D000013B09781380029B019101330293DDE7FB
:1019E000C0B2062807D1009B03990133DBB28031D6
:1019F0000093803C0391002CB8D10420FFF70EFF28
:101A0000FFF71EFF044B01251C7000E00025281C79
:101A100005B0F0BD2503002026030020A20200200F
:101A2000F0B5384C87B0002301902370994201D162
:101A3000012301E0344A1180344A642613704320A4
:101A4000FFF7ECFE324FFFF7F3FE002803D1002F23
:101A500003D0013FF7E7002F03D1013E002EEED166
:101A60004DE00125FFF7ECFE2378002B38D1C0B202
:101A70000290012805D004283DD10620FFF7CEFEB4
:101A800039E005AE0221301CFFF714FF01988021D8
:101A9000FFF710FF23780390002B18D1FFF7D0FE3B
:101AA0000702FFF7CDFEBFB223783F18BFB2012B6C
:101AB0000DD0039B9F4207D13378AB4204D1EB4357
:101AC0007278DBB29A4204D01820FFF7A7FE0023F9
:101AD00003E00620FFF7A2FE029B2278002A02D034
:101AE000002626700BE0012B05D1019A6B1C803279
:101AF000DDB20192B6E7054A002313700126301CBF
:101B000007B0F0BD25030020A2020020260300201C
:101B100000350C00002934D00123002210B4884283
:101B20002CD301242407A14204D2814202D209010C
:101B30001B01F8E7E400A14204D2814202D249002D
:101B40005B00F8E7884201D3401A1A434C08A042D0
:101B500002D3001B5C0822438C08A04202D3001B66
:101B60009C082243CC08A04202D3001BDC0822437D
:101B7000002803D01B0901D00909E3E7101C10BCA1
:101B80007047002801D00020C04307B4024802A1DA
:101B90004018029003BDC046190000000029F0D093
:101BA00003B5FFF7B9FF0EBC4243891A1847C04678
:101BB0007047C04610B50023934203D0CC5CC45498
:101BC0000133F9E710BD031C8218934202D019704B
:101BD0000133FAE770470023C25C0133002AFBD1CE
:101BE000581E7047F8B5C046F8BC08BC9E46704702
:101BF000F8B5C046F8BC08BC9E467047040309040B
:101C000041726475696E6F204C4C4300417264757B
:101C1000696E6F204D4B5220576946692031303133
:101C20003000000012010002020000404123540075
:101C30000002010200010000080000001000000086
:101C400020000000400000008000000000010000B3
:101C500000020000000400001D18000041180000F0
:101C600031180000751800008F18000019190000C5
:101C7000211A00007600200041707220313120329C
:101C80003031390031333A30393A353600580A0D9F
:101C900000590A0D005A00230A0D003E00322E3072
:101CA00000000000A5100000C1100000DD100000C1
:101CB000011100001D11000001110000451100007C
:101CC0005B41726475696E6F3A58595A5D00000045
:101CD0002110422063308440A550C660E77008811F
:101CE00029914AA16BB18CC1ADD1CEE1EFF1311296
:101CF000100273325222B5529442F772D66239936F
:101D000018837BB35AA3BDD39CC3FFF3DEE36224E5
:101D1000433420040114E664C774A44485546AA5BE
:101D20004BB528850995EEE5CFF5ACC58DD5533675
:101D3000722611163006D776F6669556B4465BB70E
:101D40007AA719973887DFF7FEE79DD7BCC7C44845
:101D5000E5588668A7784008611802282338CCC95E
:101D6000EDD98EE9AFF9488969990AA92BB9F55AD5
:101D7000D44AB77A966A711A500A333A122AFDDBAE
:101D8000DCCBBFFB9EEB799B588B3BBB1AABA66CA5
:101D9000877CE44CC55C222C033C600C411CAEEDFE
:101DA0008FFDECCDCDDD2AAD0BBD688D499D977EB5
:101DB000B66ED55EF44E133E322E511E700E9FFF4E
:101DC000BEEFDDDFFCCF1BBF3AAF599F788F889104
:101DD000A981CAB1EBA10CD12DC14EF16FE18010E8
:101DE000A100C230E3200450254046706760B983EB
:101DF0009893FBA3DAB33DC31CD37FE35EF3B10238
:101E00009012F322D2323542145277625672EAB5FA
:101E1000CBA5A89589856EF54FE52CD50DC5E23487
:101E2000C324A01481046674476424540544DBA7CA
:101E3000FAB79987B8975FE77EF71DC73CD7D326D7
:101E4000F2369106B01657667676154634564CD95A
:101E50006DC90EF92FE9C899E9898AB9ABA9445827
:101E6000654806782768C018E1088238A3287DCB2A
:101E70005CDB3FEB1EFBF98BD89BBBAB9ABB754A77
:101E8000545A376A167AF10AD01AB32A923A2EFDBA
:101E90000FED6CDD4DCDAABD8BADE89DC98D267CC7
:101EA000076C645C454CA23C832CE01CC10C1FEF0A
:101EB0003EFF5DCF7CDF9BAFBABFD98FF89F176E17
:101EC000367E554E745E932EB23ED10EF01E00004B
:101ED000000000000114000009024300020100801C
:101EE0003209040000010202000005240010010470
:101EF00024020005240600010524010001070583D2
:101F0000030800FF09040100020A00000007058120
:101F100002400000070502024000000000C201006C
:101F200000000800690000004100000000000000FF
:10200000008000200D3E0000F53D0000F53D000081
:1020100000000000000000000000000000000000C0
:10202000000000000000000000000000F53D00007E
:102030000000000000000000F53D0000613E0000CF
:10204000F53D0000F53D0000F53D0000F53D0000C8
:10205000F53D0000F53D0000F53D0000F93D0000B4
:10206000F53D0000F53D0000F53D0000F53D0000A8
:10207000F53D0000453D0000353D0000F53D000008
:10208000F53D0000F53D0000F53D0000F53D000088
:1020900000000000F53D0000F53D0000F53D0000AA
:1020A000F53D0000F53D0000F53D0000F53D000068
:1020B0000000000010B5064C2378002B07D1054B1B
:1020C000002B02D0044800E000BF0123237010BDA4
:1020D000B000002000000000B4620000044B10B506
:1020E000002B03D00349044800E000BF10BDC046E8
:1020F00000000000B4000020B4620000F0B5384CCD
:10210000A54400AF01F0C2FF03F05EFA012001F028
:10211000E5FE344C0021200000F0ECF900284CD002
:10212000314E2000310000F0C1FA7860002844D020
:102130000C25210078190123320000F071FA78197A
:1021400000F00DF9C0210500C901884245D90C23D2
:10215000F81800F0F0F88021244B0902EB181A005F
:10216000234880253B6001F05BFC2D0208212823D9
:1021700080227818C1181C3B9200F81800F0D2F8A1
:1021800008218023282279188A189B0029001848E2
:1021900001F0F6FB8022174B9200EB18AD183A685D
:1021A0009342E3D30C23F81800F0F2F87B68002B7D
:1021B00003D03100200000F085FA80231B021A684A
:1021C00082F308880C4A93600C4B1B681847002068
:1021D000BD468D239B009D44F0BD00237B60E1E75D
:1021E000CCFDFFFFE40000206858000000A0FFFFC6
:1021F000CC0000200082FFFF00ED00E00480000022
:10220000002210B51100024801F0A2FB10BDC0462B
:10221000CC00002013B56B460268D97107335468AF
:1022200019000122A04716BD10B5036A181E02D07E
:102230001A689268904710BD10B5036A0400002B1D
:1022400003D101230020636010BD0020586092B2CA
:10225000206A01F04DF8236A5B68002BF1D1F3E7A7
:1022600010B5006A002802D0012100F049FE10BD1F
:1022700013B56B46DC1D0122210000F06FFD012823
:1022800001D1207816BD01204042FBE710B5006A5D
:10229000002802D0FFF7ECFF10BD01204042FBE711
:1022A00070B500240500006AA04209D0FFF7E0FFE6
:1022B0000400431C04D0286A0369591E00F0F0FD95
:1022C000200070BDF8B5FA2300259B0083600D4BFC
:1022D000040008334560036028200F00160003F057
:1022E00097F92062A8420AD02822390003F0B3F9F6
:1022F00020000C223100103003F086FA25772000F0
:10230000F8BDC04674580000FA2200239200826093
:10231000034A436008320260036203747047C04698
:102320007458000010B5036A0020834202D01800E0
:1023300000F014FD10BD10B5036A0020834205D0E3
:10234000180000F0ADFD431E9841C0B210BD036AF5
:10235000002B01D01869704701204042FBE7036A57
:10236000181E00D0D869704770B50500006A0028B3
:102370000BD02800FFF7F3FF04002800FFF7E7FF6A
:10238000024B201A984200D9180070BDFF7F000050
:1023900010B50400006A002806D000F0F7FD206A9E
:1023A00003F040F90023236210BD000010B50A00BD
:1023B0000B498AB000230091694601934B720133A7
:1023C0000100684600F0C6FE0400631E9C41E4B2B2
:1023D000002802D0684600F0D9FD20000AB010BDE8
:1023E000B458000010B50123002A04D000F068FFA3
:1023F000431E9841C3B2180010BD70B501220400FD
:102400000D0001F005FA02000120002A03D1290085
:10241000200001F0FDF970BDF0B50B68C45C2F3CE5
:1024200065426C411B191F001E000C37C55C9C1BCC
:102430002F2D08D0002D06D001339C1B013C1555D3
:10244000BB42F3D10C2400251555C25C2F3A5442EF
:1024500062419B180B60C05C431E9841C0B2F0BD46
:10246000F0B50E009FB00393002334000190204884
:102470000AAF14A902927B600A907B7215931490A4
:102480004B72059306AA05A90198FFF7C5FF012223
:1024900042400090029DD2B2039B06A92000A847AB
:1024A000051E05D1B44218D1002528001FB0F0BD8B
:1024B000009B002B0ED0012306AA2100380000F05B
:1024C00049FE0500B4420CD0200000F05FFD002D55
:1024D0000AD1E9E70125B442E7D0200000F056FD1B
:1024E000E3E70028E0D014AC23003C001F00C9E75C
:1024F000B4580000030070B541331B7804000D0090
:10250000002B02D0383000F041FD2A0001212000CC
:1025100000F0C8FA002801D1002070BD2500103558
:1025200021002800FFF769FF0028F5D020002900CE
:10253000383000F0E9FB431E9841C0B2EDE70000DF
:102540004B6843600A4B03600B7A03724B7A437209
:10255000CB68C3600B6903614B6943610B7E0376F3
:10256000CB69C3610B6A03624B6A43627047C04622
:10257000B4580000F0B59DB00393002308AD02925B
:1025800012AE264A07006B60736010312800089273
:102590006B721292737200F0B7FB029C2F21200025
:1025A00003F024F9002830D023782F2B01D10134F7
:1025B000F4E7001BC0B2031C0C2800D90C23DBB2CB
:1025C0001A00210004A8019303F01EF900230199C9
:1025D00004AA3000535400F0D9FC012304AA2900B6
:1025E000300000F0B7FD002806D10C4B78603B604E
:1025F000787238001DB0F0BD019B2800E41800F08F
:10260000C5FC2B0035001E00C8E7029B2900E41A18
:10261000039B38001C60FFF793FFEAE7B458000003
:10262000F0B51400A3B004AE0193070003AB300073
:10263000FFF7A0FF039BE4182378002B09D131009A
:1026400018A8FFF77DFF174A18A93800FFF73AFED0
:102650000BE000230EAD6B60134A6B72737A0E921F
:10266000002B05D13800FFF74FFE380023B0F0BD36
:10267000019B22003100280000F06CFD0028F1D001
:10268000300000F083FC0623019A1A40062A03D189
:102690001599280000F004FC290018A8FFF750FF46
:1026A0002200D1E798580000B458000010B50C0083
:1026B000010000233831024A2000FFF7D1FE10BD8F
:1026C000AD23000010B50C00010000233831024A90
:1026D0002000FFF7C5FE10BDE52300000221084BD6
:1026E00000221961190030310A7006495A719A7135
:1026F0009A721A73DA63996341331A707047C0464D
:10270000E4000020B458000000B5062904D91623BF
:1027100000214371080000BD104B05291AD808009C
:10272000002202F0ADFE03090F1113150C491960C8
:1027300001211A715971EDE71A71012209485A7184
:102740001860E7E70849F2E70849F0E70849EEE7CB
:102750000849ECE7084A1A600022E9E74C0100202A
:1027600040787D0100093D0080841E0040420F003A
:1027700020A1070090D0030048E80100034B044A61
:102780001A6000221A7101325A7170474C01002000
:1027900000093D0010B50100014801F06CF910BDC1
:1027A0008007002010B5FF21014801F064F910BD39
:1027B0008007002070B50C0001F05AFB0500FFF700
:1027C000F1FFFF2806D001F053FB401BA042F6D3D7
:1027D000002070BD0120FCE710B50121007901F057
:1027E0004BFD054B1A78002A04D0002203481A70CA
:1027F00001F0B8F910BDC046480100208007002054
:1028000010B583790400002B0DD023895A1C228136
:10281000054A934202D8FFF7C5FFF6E72000FFF70D
:10282000DBFF0023A37110BD0102000070B504009E
:1028300001F01EFB962506006D00FFF7B3FF0300B5
:10284000E072FF280BD101F013FB801BA842F4D9E2
:102850000F2320006371FFF7BFFF002070BD012030
:10286000FE2BFBD00D23F4E770B505000800140023
:10287000FFF790FF80239B00E61820780134FFF7D4
:1028800089FFB442F9D1FF20FFF784FFFF20FFF753
:1028900081FFFFF787FF1F23E87203400120052B0C
:1028A00005D0112328006B71FFF796FF002070BD43
:1028B00010B5084B04001A78002A06D101321A70AC
:1028C000054B064806CB01F0CDF92079002101F037
:1028D000D3FC10BD480100204C01002080070020DF
:1028E000F8B505000E001700FFF78AFF2800FFF774
:1028F000DFFF962128004900FFF75CFF40203043AE
:10290000FFF748FF18243800E040083CC0B2FFF74A
:1029100041FF23000833F6D19520002E03D06A3002
:10292000082E00D17838FFF735FF0024FFF73AFF73
:1029300043B2E872002B04DAFF2C02D00134E4B277
:10294000F4E7F8BDF8B516001D009A1880230400BE
:102950009B009A4216DC8379002B05D003688B42DA
:1029600002D10389B3421AD9237B2160032B00D003
:1029700049020A0020001121FFF7B2FF071E06D00E
:10298000032363712000FFF727FF002028E02000C9
:10299000FFF74CFF0028F5D001232781A37123897D
:1029A000B34208D3069E7719B7420AD0FFF7FAFE62
:1029B00030700136F8E7FFF7F5FE238901332381F4
:1029C000EDE72389ED18A37AADB22581002B03D062
:1029D000044B01209D4203D92000FFF711FF012085
:1029E000F8BDC046FF01000013B504000120002B14
:1029F00004D0049800902000FFF7A4FF16BD8023A8
:102A000007B59B0000920022FFF79CFF0EBDF8B5B2
:102A10001D00040016001223002924D0037B032B81
:102A200000D049020A0020001821FFF759FF0423B3
:102A3000071E18D13200FE212000FFF715FF0028E5
:102A400012D0002D19D0962120008900FFF7B2FE88
:102A50001523002807D03A000D212000FFF740FF82
:102A6000002806D0142363712000FFF7B5FE002074
:102A700007E0FFF797FE0028F4D12000FFF7ACFE37
:102A80000120F8BD70B50500FFF712FFFFF78AFEC1
:102A900004002800FF3CFFF79FFE601E8441E0B267
:102AA00070BD0000F7B50025027105738572857150
:102AB00045710400019101F0DBF901210700207943
:102AC00001F08EFB0121207901F0D6FB424E30004F
:102AD00001F0A0F80122414B41491D715A71196062
:102AE0005A68300001F0BEF80A35013DFF20EDB212
:102AF000FFF750FE002DF8D1300001F033F8FA2630
:102B00002000FFF7D5FEF600002220001100FFF79D
:102B1000E7FE0500E07201280BD001F0A9F9C01B07
:102B2000B042F1D9012320006371FFF755FE002068
:102B3000FEBDD522082152002000FFF7D1FE04235C
:102B400018421BD02573257BFA26023D6B425D415E
:102B5000F600AD07002237212000FFF7C1FE2A0052
:102B600029212000FFF7BCFE021EE07213D001F005
:102B70007FF9C01BB042EDD90823D4E71D00FFF751
:102B800011FE013DEDB2E072002DF8D10223AA281A
:102B9000C9D12373D7E7237B022B15D13A2120001B
:102BA000FFF79EFE002801D00623BCE7FFF7FAFDE1
:102BB000C0231840984201D1BD3B2373FFF7F2FDBB
:102BC000FFF7F0FDFFF7EEFD2000FFF705FE01998E
:102BD0002000FFF799FDABE7800700204C010020A3
:102BE00090D003007047020010B50C3204000121A0
:102BF000406A00F083FD00280ED0236A002B06D126
:102C0000E368227A236280235B42134323722023EA
:102C10000120227A1343237210BD70B50600FFF71E
:102C2000E2FF002801D1002070BD736AF2681C79B0
:102C3000951E1A7C95405A69AD186419A54206D0B4
:102C4000013C200000F0A0FC0028F7D1EBE7736AFC
:102C500001201A7C80239B009340F269D318F36112
:102C6000E2E7000010B50400406900F067FC0028AE
:102C700003D0207E014B4001C01810BD5C01002034
:102C80000A00F0B50B000E000700202187B00B32C0
:102C9000197001339A42FBD10723002501931EE0EE
:102CA0001022184902A802F0D6FC002302AAD25C26
:102CB000002A04D001339442F8D1002020E0019B87
:102CC000AB42FAD32300213B5D2BF6D8403B192BB6
:102CD00001D8203CE4B26B1C7455DDB201373C785E
:102CE000002C08D02E2CDBD1019B0A2BE5D00A2327
:102CF00008250193F2E730782038431E9841C0B28E
:102D000007B0F0BD9A58000070B5427A04000D007B
:102D1000002A01D0002070BD4B1CDB7F102B0ED190
:102D20000E3B43724B8C02625B01C36100230120A6
:102D300065622072E360236163612376EBE7202BF9
:102D4000E8D102001D3B4372496A1C32016228002F
:102D500000F06AFC0028E9D1DCE70000F0B5437A16
:102D600085B004000F000392002B03D101204042E4
:102D700005B0F0BD037ADB07F8D50269C3699B1A79
:102D8000039A9A4201D99BB20393039B0293029B3D
:102D9000002B5ED02369627ADD05ED0D606A5E0A64
:102DA000022A25D1406A80238019029E9B005B1B6A
:102DB0009E4200DD9EB24022237A134203D180233B
:102DC0009B009E4203D1254B1B6883422CD10021DE
:102DD00000F0B4FB0028C9D0214B3900ED182A00BF
:102DE000AB19934232D01078013208700131F8E704
:102DF0000279013A1640F6B2002D05D1002E03D11A
:102E0000002B09D1236AE360636AE268901E1A7C92
:102E10005B699040C018C6E72200E1680C3200F000
:102E2000D3FB0028F0D1A1E701000E480097330042
:102E30002A000068FFF7D8FD002897D0BF19236942
:102E40009B192361029B9E1BB3B29FE75D1B7F19F9
:102E5000F5E76B460C20185E8AE7C04604000020A8
:102E60005C0100206003002037B5437A0500002094
:102E7000012B0BD92B690122DC056B462800D91DDB
:102E8000240FFFF76BFF012801D000203EBD2B6906
:102E900060011F332B61014BC018F7E75C01002074
:102EA00070B5437A04000E00002B01D1002070BDE4
:102EB000C2698A42FAD3022B02D126610120F6E7C9
:102EC000002901D1E160F8E7436A01691A7C751EA7
:102ED00009324B1ED340D540AB4201D800290DD159
:102EE000236AE360002DE8D02200E1680C32606ABA
:102EF00000F06AFB013D0028F4D1D7E7ED1AF1E7B5
:102F000070B5437A05000E00002B01D1002070BD82
:102F1000037A7F2B2DD90121FFF7A4FE041EF5D0E3
:102F20006B7A012B07D8EB691A0A037742771A0CE0
:102F30001B0E8277C3772B6A9BB2A3761B0AE376BC
:102F40002B6A1B0C23751B0A63750F4B1B68002B28
:102F50000BD021002000163118309847637E227E66
:102F60001B021343A3741B0AE3747F222B7A1340C2
:102F70002B72002E03D110222B7A93432B72300038
:102F800000F0B6FAC3E7C0465401002010B5012195
:102F90000400FFF7B5FF002802D000230120637270
:102FA00010BD0000F8B5437A0500012B01D00020C8
:102FB000F8BD037A9A07FAD55B0712D4174B186845
:102FC000FFF760FD0028F2D12A7A202714003C4048
:102FD00010D001002800FFF793FF2B7ABB432B7220
:102FE000E5E7C16903698B42E8D0FFF759FF002884
:102FF000E4D1DCE70A4B1B68002B03D0200000F073
:103000005FFAD4E7102328691343C0052B72C30D60
:1030100080208000C01A80B2CAE7C046600300204A
:103020005C03002073B50400407A0D00012801D034
:10303000002076BD237A9B07FAD5E3698B42F7D34C
:10304000002BF6D020002669FFF72AFF0028EFD0DA
:10305000606A002D19D1216A00F0B2FB0028E7D088
:1030600025628023227A5B421343E56123720121AA
:103070002000FFF745FF0028DAD02900B54200D92B
:1030800031002000FFF70CFFD3E701AAE16800F050
:103090009BFA0028CCD0606A0199431CDB7F103B6F
:1030A0005A1E9341094A5B421340094A9B189942B0
:1030B000D7D200F085FB0028BAD0064AE168606AE2
:1030C00000F0D8FA0028CCD1B2E7C0460000FF0FCC
:1030D000F8FF0000FFFFFF0F1C4B70B515004A0101
:1030E000D31811220400D87A104204D0313215428C
:1030F00001D0002070BD1820154A21761268626147
:103100009A8A12042262598B11432162DA7A0240B0
:1031100010D1DB69E361012363720F2300212B408F
:103120002372E160216101206B06E3D52000FFF7E7
:1031300079FFDFE7102ADCD12200606A1C3200F040
:1031400073FA0028D5D00423E6E7C0465C010020CE
:1031500004000020F0B50500447A002087B00E007E
:103160001F00844206D103A91000FFF789FD002843
:1031700002D1002007B0F0BD736A6B62F460346165
:103180003369F26993421DD20F225B091A40300065
:103190000192FFF769FE011EEBD00378002B05D0EA
:1031A000E52B48D1002C03D00124E9E7002C05D100
:1031B0006B461B792B76334B1B686B610B78002BAE
:1031C000F2D1012412233B40122BD2D1002C43D048
:1031D00001212800FFF746FD041ECAD0202200214D
:1031E000200002F041FA0B2203A9200002F033FA7A
:1031F000254B1B68002B3CD0210020000E311030E5
:103200009847637C227C1B021343FF221A401B0A4F
:10321000E3746376E37BA2742276A27B1B021343E2
:10322000A3751B0AE375012000F062F90028A0D005
:10323000297E3A000CE00B2203A802F0FDF90028D9
:103240009ED130233B40302B00D192E73A000199C8
:103250002800FFF741FF8DE7737A022B00D188E742
:103260003000FFF7DAFC002800D182E72C76074C0B
:10327000B4E72122A3730823227407326274E37334
:10328000BFE7C04604000020540100205C0100207C
:1032900010B500210400FFF7C5FE002801D1002071
:1032A00010BD01212000FFF7DDFC0028F7D0E52349
:1032B000037000230120637200F01AF9F0E70000A8
:1032C00010B50A4B8AB00833002400936B460A00FD
:1032D0005C720100022368460194FFF73BFFA042A5
:1032E00002D06846FFF7D4FF0AB010BDAC5800000A
:1032F000F0B5437A87B004000F000392012B2ED162
:10330000037A02939B072AD5029B5B071FD4039B7A
:103310000093009A2369002A00D199E0606A5D0A4F
:103320000279DB05013A1540DB0DEDB20193002D6A
:103330001AD1002B18D1E16800294BD1236A002B48
:1033400011D12000FFF74FFC00280DD107E0C16923
:1033500003699942DBD0FFF7A3FD0028D7D10123F1
:103360000020636089E0E3608023019A9B009B1A40
:103370006A461688009A9BB29A4200D91E1C626A5D
:10338000E368117C023B8B405269B6B29B185D1911
:1033900080239B009E4232D13D4B1A68AA4202D143
:1033A000012252421A60029B3A481A09012329005D
:1033B000934300683A00FFF72AFB0028CFD0802310
:1033C0009B00FF18009B9B1B9BB2009323699E19D7
:1033D00026619EE705AA00F0F7F800284DD0636A41
:1033E000059A0133DB7F103B591E8B412A495B4212
:1033F0000B402A495B189A42A3D2E260B4E7019BD2
:10340000002B1CD12369E269934218D3012000F0FC
:103410006FF80028A3D01E4B214A1D6001231178AC
:103420000B431370019A1F4B3800D31819009A19D7
:103430008A420BD0057801300D700131F8E7012187
:10344000280000F07BF80028ECD188E7D31AB8E711
:10345000E169227A994205D2E36180235B421343FA
:10346000237206E0104B1B68002B02D0039B002B3D
:10347000F3D1237A1B0702D4039807B0F0BD0121D2
:103480002000FFF73DFD002800D168E7F4E7C046C3
:1034900004000020600300200000FF0FF8FF000080
:1034A000580100205C0100205401002007B56B4644
:1034B000D971073301221900FFF71AFF0EBD000072
:1034C00010B5084C030021680120002909D00648E6
:1034D000064A0068FFF79BFA002802D0002301206B
:1034E000236010BD5C030020600300205C0100200D
:1034F00070B50E4D04002B78002B01D101200AE09D
:1035000003000B490B480C4A09680068FFF77FFA73
:10351000002801D1002070BD002CEFD02000FFF763
:10352000CFFF0028F6D000232B70E7E758010020DA
:1035300004000020600300205C01002070B50E4EE6
:10354000050033680C0083420FD00120FFF7D0FF45
:10355000002801D1002070BD084B094A29001868D5
:10356000FFF74DFA0028F5D03560064B01201A7898
:1035700014431C70EFE7C0460400002060030020E5
:103580005C0100205801002070B504000120FFF705
:10359000AFFF002810D0002380221800074D9200B2
:1035A0005919013308709342FAD10120044B054A9E
:1035B0001C6013780343137070BDC0465C0100208B
:1035C0000400002058010020C36870B501330C00CE
:1035D00015008B4201D2002070BD461CF27FC369EA
:1035E000C809102A00D1080AC0180D4B1B68834275
:1035F00009D1F27F0B4B102A0BD1E4B264001B5BA4
:103600002B600120E8E70021FFF798FF0028F0D1A8
:10361000E1E77F221440A4001B591B011B09EFE7BF
:10362000040000205C010020F7B58027050016008B
:1036300000240191BF0001AA01992800FFF7C4FFEF
:10364000002812D03A002B7C9A406B1CDB7FA41818
:10365000103B5A425341054A5B421340044A9B18AF
:10366000019A9A42E7D301203460FEBD000001F0C8
:10367000F8FFFF0FF7B506000C000192012901D8F1
:103680000020FEBDC36801338B42F9D3471CFA7F8B
:10369000C569CB09102A00D10B0AED18134B1B6822
:1036A0009D4216D1FA7F124B102A19D16A46E4B214
:1036B000928864001A5301230E4918000A781A43AD
:1036C0000A70327E9A42DCD9B26855190A4A1560EE
:1036D000D7E700212800FFF731FF0028E2D1CFE72C
:1036E0007F221440019AA4001A51E4E7040000204C
:1036F0005C010020580100205C030020F0B5146834
:1037000087B0060002910192002C2AD000270134D4
:10371000F36825000133039300230093F368009AB4
:1037200093421AD9039B9D4201D902252C0005AA78
:1037300029003000FFF748FF00280ED0059A6B1CC7
:10374000002A15D102991A1B8A4212D11B4A29005C
:103750003000FFF78FFF002810D10027380007B096
:10376000F0BD029B0468013B5A425341DFB2CFE7F0
:103770001C00009A1D0001320092CFE7AC4208D233
:103780006B1E2A00190030000093FFF773FF009DA5
:10379000E1E7019B1968002905D1019B1C60002FFE
:1037A00008D10137DAE722003000FFF763FF002875
:1037B000F3D1D2E701343460D0E7C046FFFFFF0FFA
:1037C000022337B505000C00036001AA2100280080
:1037D000FFF7FAFE002815D0002221002800FFF78D
:1037E00049FF00280ED06B1CDB7F019C103B5A4226
:1037F0005341054A5B421340044A9B189C42E4D360
:1038000001203EBD0020FCE7000001F0F8FFFF0FA3
:10381000F8B53F4B0500141E196020D0042A01D9C9
:103820000020F8BD00210800FFF788FE0028F7D02F
:10383000631E384A1B01D318BF33FF331B785B0666
:10384000EED11B3424011419A38962891B0413438C
:10385000632BE5D9E388248924041C43E0D00021AC
:103860002000FFF76BFE0028DAD080222949920061
:103870000B7BC87A1B0203439342D1D10A7C002AF6
:10388000CED0CB89002BCBD04B7B002BC8D02A7657
:10389000002201202B712A7402002E7CB240934238
:1038A00004D0721C2A74072EF6D9B9E7C88A0028FA
:1038B00000D1486AA860CB891B19EB610A69120222
:1038C000120C6A840F7C7843C0185301124A686254
:1038D0009B185B121B186B610A7DC87C12020243A5
:1038E00000D10A6AE41AA418F4400C4AEC606B1C7C
:1038F000944203D80C22DA77012092E7084A9442D6
:1039000001D81022F7E7CA6A6A622022F3E7C046AC
:10391000600300205C010020FF010000F40F0000A4
:10392000F4FF000010B5054A0549064800F010F8FC
:103930000022054B05491A705A5410BD01040000BD
:103940000059000068070020640300200204000002
:1039500030B5094D094CAB685B035B0F9B001C59EC
:103960000460AB6801619BB243606343A400836061
:10397000C460426130BDC04600400041005E0000AE
:10398000F7B580261A4D01916F6803333E439B08BB
:103990006E60002B2BD0174E2E802E7DF107FCD5AC
:1039A0001E000768991BBF088F4219D9002E17D037
:1039B000FF2117788C433C430F4957780C403F0256
:1039C0003C439778013E39040C4F2740D478BFB26E
:1039D0000F43240601993C4310C101910432E0E7F2
:1039E000074B2B802B7DDB07FCD53300D1E7F7BDE0
:1039F0000040004144A5FFFFFF00FFFFFFFF00FF65
:103A000004A5FFFF044B054A4908D9611A801A7DB5
:103A1000D207FCD57047C0460040004102A5FFFF19
:103A200070B504000D001600E36829002000B342C1
:103A300005D2FFF7E7FFE368ED18F61AF4E7FFF7A2
:103A4000E1FF70BD70B506000C008D18AC4207D0C8
:103A5000336821789B683000984720700134F5E77F
:103A600070BD7047704710B50400406800F086FDD7
:103A70000023237610BD10B5406800F0A4FD10BDF2
:103A8000F8B5050040680C0000F098FD2B68E7B21F
:103A9000260A9B68012810D139002800FF27984783
:103AA0002B68BC4304439B683100280098470302FD
:103AB00020003840184380B2F8BD310028009847F4
:103AC000FF262B680002344004439B68390028001D
:103AD0009847B4432043EEE710B5040001F0ACF87A
:103AE000200010BD10B54B1C0BD0102909D0EFF3EE
:103AF000108472B6102905DD02234376002C00D114
:103B000062B610BD0123427E1A43427618224A4310
:103B10000449891816228A569340C2691343C36127
:103B2000ECE7C046605E00004B1C17D0102915D092
:103B3000437E9B0712D4EFF3108272B618234B43D7
:103B40000749C9180123897D49B28B40C16999434E
:103B5000C16100D14176002A00D162B67047C046EB
:103B6000605E0000437E002B05D09A0704D5837E5B
:103B7000002B00D062B67047DB07FCD5C369024A50
:103B80009BB2D360F7E7C04600180040037E002BCD
:103B900004D143768376C361013303767047000016
:103BA0007FB5036902AE04000D00029172608B4282
:103BB00003D1828AB3889A4226D02000062231009F
:103BC000103001F048FD606800F0EFFC7379E17A95
:103BD000013B581E8341227B00936068002300F064
:103BE00089FD33790021013BDBB2022B01D8074A62
:103BF000D15C074B2A009D4200D91A00606800F092
:103C0000A5FC606800F0C7FC7FBDC046205E0000D8
:103C1000001BB70070B518260400FFF7B7FF33008C
:103C20000821207A0D4D4343EB18595600F050FB04
:103C300033000821A07A4343EB18595600F048FBA3
:103C40000821607A4643AD19695600F041FB044BE8
:103C5000200006CBFFF7A4FF70BDC046605E0000E9
:103C6000C007002007B5437E00910192002B07D0CA
:103C70009A070AD5EFF310835A425341837672B6FE
:103C80000099019AFFF78CFF07BDDB07F8D5C369E0
:103C9000014A9BB29360F3E700180040F7B5002497
:103CA0000125194B194A5D711A601C71184B19488E
:103CB000083301930360184B184F4360184B194E9B
:103CC000038109233A00310045750461047583724C
:103CD000063B0476C472037301F0CAFB1248134B0F
:103CE000019A4360124B457503811D233100026028
:103CF00004613A00047583721A3B05730476C3723B
:103D000001F0B6FBF7BDC046C007002000093D002A
:103D1000245E000080070020580C002000000020D6
:103D20000A080000653A0000A0070020700C00207F
:103D30001B1A000010B5024800F0C3FE10BDC046BB
:103D4000C807002010B5024800F0BBFE10BDC046F9
:103D50000C0A00207FB51949194800F067FB194982
:103D6000194800F063FB1949194800F05FFB194935
:103D7000194800F05BFB194C1949200000F056FB74
:103D8000184E1949300000F051FB01250323310082
:103D9000019500930D220B33144800F00BFE1D23F8
:103DA0000393013B02931A3B0193009518331B22A6
:103DB00021000F4800F0BAFD7FBDC0460008004258
:103DC000500C0020000C0042580C00200010004253
:103DD000600C002000140042680C0020700C0020D1
:103DE00000180042780C0020001C0042C807002088
:103DF0000C0A0020FEE70000034B10B51B68002BE7
:103E000000D0984710BDC046800C002070B50F4907
:103E10000F4CA14204D100F089F8FEF76FF9FEE7DC
:103E20000C4D00238D42F6D0CA18E818A24205D3E3
:103E3000094B8242EFD00949002204E000680433B4
:103E40001060F1E704C38B42FCD3E4E700000020DC
:103E5000B0000020B8620000B0000020B8120020BE
:103E600010B500F060F8002801D100F051F810BD45
:103E7000014B18687047C046840C0020F7B5134802
:103E8000012284461249134C8E68636805689B0EB4
:103E90001340019288686268019F920E3A4067461B
:103EA0003F6893420ED1BD420CD186420AD35B19C2
:103EB000FA254868AD00861B07486B437043000D28
:103EC000C018FEBD3D0013000600E3E7840C00208F
:103ED00010E000E000ED00E05555000070B5041E54
:103EE00010D0FFF7CBFF050000F01CF8FFF7C6FF6E
:103EF000054B401B9842F7D9FA23013C9B00ED1873
:103F0000002CF3D170BDC046E703000070470000ED
:103F100010B5034A13680133136000F04BFA10BD6B
:103F2000840C002070470020704700001E2270B5EE
:103F300046484749436893431C3A13434360082368
:103F40008C6923438B61434C434B9C829C8A144372
:103F50009C82DC681442FCD00124404A147015781D
:103F6000254203D055786DB2002DF8DB0124946012
:103F7000547864B2002CFBDB394C5460547864B242
:103F8000002CFBDB8224E4015480547864B2002CC2
:103F9000FBDB02249C840E34DD682542FCD0314CCE
:103FA000DC621024DD682542FCD09D8C2E4C2C4315
:103FB0009C841024DD682542FCD002249D8C802640
:103FC0002C439C844024DD683542FCD0DD682542CA
:103FD000F9D01024DD682542FCD000249460547888
:103FE00064B2002CFBDB214C5460547864B2002C8A
:103FF000FBDB1C6A1E4D2C4080251C621C6AAC43F6
:104000001C62032393601B4B536053785BB2002BFD
:10401000FBDB0023FF240B72174A4B728B72CB72AF
:10402000164B1A60164B174A1B6811689A065B01FB
:10403000C90E2340520F12020B431343124A138539
:10404000802342681343436070BDC0460040004176
:10405000000400400C06000000080040000C004076
:1040600001050100B905FF7D040A000000070300F7
:10407000FFFCFFFF03060100006CDC0208000020CB
:10408000246080002060800000400042FA21314B13
:1040900010B51868890001F0FDF92F4B01389842DE
:1040A00056D82E492E4A4860C020136A00061B02CB
:1040B0001B0A03431362002407238C600B608021DA
:1040C000136A09061B021B0A0B431362FC22254BD1
:1040D000196A0A431A62FC22196A92010A431A6297
:1040E000A022196AD2020A431A62E0B20021013406
:1040F00000F076F80F2CF8D11B4B1C005A7852B206
:10410000002AFBDB194A5A80194B1A00597EC9094B
:104110000129FBD0E421C90099803F21D970537E49
:10412000DB09012BFBD0C02300205B0113619070E1
:1041300000F024F863785BB2002BFBDB0D4B0E4ADA
:104140006380D379DB09012BFBD04123537010BD71
:10415000FEE7C04608000020FFFFFF0010E000E07F
:1041600000ED00E000040040000C00401E40000094
:10417000004000422140000000480042164A00B5BD
:104180001300517EC9090129FBD00138042816D833
:104190001969124A0A400F211A615A788A4301F0BC
:1041A0006FF90308060B0300110001220A435A703D
:1041B00000BD11000322F9E711000222F6E7F02307
:1041C00011691B050B430F21136153788B431900B1
:1041D00002230B435370EBE700400042FFFFFFF068
:1041E000182330B51D00040045430820204A551906
:1041F0002856013014D0032912D808006343D15641
:10420000D31801F03DF902280E1B5868CB0102219A
:10421000184A9B181A1840321170012282405A60C5
:1042200030BD5868CB010621124A9B181A1840323B
:104230001170012282405A609A61F1E75868CB01FF
:1042400006210C4A9B181A18403211700122824034
:104250005A605A61E4E75868CB010221054A9B186D
:104260001A1840321170012282409A60D8E7C04685
:10427000605E0000004400411823F0B50824584354
:10428000114A13181C5701341BD0012635005F68F2
:104290008356BD400D4ADB019A18906805420BD148
:1042A0000C00601E8441D21940321078344003362D
:1042B000A400B04320431070044A9B18002901D188
:1042C0005D61F0BD9D61FCE7605E0000004400415F
:1042D00018224243F8B52C4E0300B218127A52B29B
:1042E000140001320ED0481C00240C280AD801F01A
:1042F000C7F80720202020202020200B0B0B0B00CC
:10430000012464422000F8BD092905D10021D8B25A
:10431000FFF766FF0024F5E70A2902D1D8B2083971
:10432000F6E700240B29EDD1D8B20A39FFF758FF80
:10433000E8E718204343F2185568F3562C00134A57
:10434000DB016E0817389B18C9B204409E19002C77
:104350000DD00F2430363278090122401143C9B202
:104360005B19317040331A7810431870D2E732006D
:104370000F27303216785B19BE433143117040333A
:104380001A7810431870BDE7605E000000440041D9
:1043900010B50400FFF7BAFD014B1C6010BDC0460C
:1043A0000C0000200122024B52421A607047C046A6
:1043B0000C000020164A10B51368591C26D0013B8A
:1043C0001360002B22D172B6124B134A043393426E
:1043D00013D9124A01211000147D0C42FCD0202177
:1043E000148BFF319B085B0021431183D3610C4B7D
:1043F00013800123027D1A42FCD0BFF34F8F094B7B
:10440000094ADA60BFF34F8FC046FDE710BDC046D2
:104410000C000020002000000302000000400041CA
:1044200002A5FFFF00ED00E00400FA050023037180
:10443000016070479446F0B59E1E721E964162461A
:10444000056892072F6836063A4332432A600725EB
:1044500005AC24780068A401294021434268002467
:10446000022B00D05C03114321434160F0BD30B505
:10447000C0250368AD031C6812052A402243C024EE
:104480000904A40221401143196003685A681443C7
:104490005C6030BD0123026811680B431360036840
:1044A0001A68D207FCD4DA69D207F9D4704702231C
:1044B000026811680B4313600268D3699B07FCD440
:1044C00070470268137E9B0702D40379002BF9D151
:1044D000002303717047002203685A837047036802
:1044E000187E4007C00F70470368187EC0097047E8
:1044F000802302685B42117E0B431376704703688A
:10450000588B8007C00F704702230268518B0B4302
:10451000538370470368187EC007C00F7047036855
:10452000188DC0B2704703681A7ED207FCD589B2D5
:1045300019850123037118007047012203689A75D9
:104540007047012203681A757047000070B5012694
:1045500004684B0833403140256809075B070B436B
:104560002B43236004685100034800F093FF013897
:10457000C0B2207370BDC046006CDC02012302682B
:1045800011680B43136003681A68D207FCD4DA6918
:10459000D207F9D470470223026811680B431360F5
:1045A0000268D3699B07FCD470470368DA699207F5
:1045B000FCD402211A688A431A607047036818689D
:1045C0004000C00F70470268936A5B0A5B021943A0
:1045D000916203681A7E5207FCD5986AC0B2704790
:1045E0000368214A30B593422FD0204A93422FD0FE
:1045F0001F4A93422FD01F4A93422FD01E4A934204
:104600002FD01E4A93421FD10E23192201210325C8
:1046100099401B48C024016099082B40AB40FC35F1
:104620009D4089000918A4000859A843C0259D4051
:104630002B0003430B518023DB011A43114B5A809B
:104640005A7852B2002AFBDB30BD09231422DDE781
:104650000A231522DAE70B231622D7E70C231722A9
:10466000D4E70D231822D1E700080042000C0042D5
:10467000001000420014004200180042001C0042DA
:1046800000E100E0000C0040F8B504000F00160047
:104690001D00FFF7A5FF2000FFF7FCFE1C21BB005B
:1046A0000B4071072268090C0B43136084232268B6
:1046B0009375012F1AD11021012E00D008390C4B0F
:1046C00069431868C00000F0E5FE07222168024037
:1046D0008B895203DB04DB0C13438B8122680304B8
:1046E0009089DB0C400B400318439081F8BDC04615
:1046F00008000020F7B50600019308AB1F780D00F5
:104700001400FFF73BFF3000FFF76AFFC0222405CB
:1047100092031440BA070C2717433C43C0270722D3
:10472000BF022D0433683D4025431D60019B316865
:1047300013401A0080239B0213434B60F7BD0120F6
:104740007047000010B50368014A1B6A984710BD06
:1047500013040000FC30006A704787239B00C018D8
:10476000C36880204000C01A70470300FC331A6AF7
:10477000002A03D0DB69C018007D70470120404249
:10478000FBE710B504000069FFF784FE2200002358
:10479000FC329361D361136287229200A418636094
:1047A000A360E36010BD872310B59B00C218D368D7
:1047B000002BFCD10069FFF784FE10BD0368002BBD
:1047C00002D162B6BFF36F8F7047F02001403039DD
:1047D000484248417047F0231B01194080230620BE
:1047E0009B0099420AD00133FF330130994205D032
:1047F000802302385B00994200D0002070470F20D0
:1048000001400020012903D00239481E8141481C83
:10481000704700008B23F0B5182685B002919B00ED
:104820000400C05C330008214343324D1700EB18ED
:104830005956FFF74DFD304B0821E05C33004343F0
:10484000EB185956FFF744FD2C4BE25C0393022A08
:1048500009D11133E05CFF2805D008214643AE1989
:104860007156FFF735FD8C26B600A05DFF2819D0E4
:104870000121FFF7B5FC1822A35D21495A43AB562D
:10488000AD18DB0158188D21890060501D490122A7
:104890005B188E218900635069688A408F218900E6
:1048A00062501A600122029B11002069FFF7ECFEA2
:1048B00039002000FFF78FFF390005002000FFF7C7
:1048C0009EFF390006002000FFF77FFF33000090B5
:1048D000290020690122FFF7ADFD0B4B2069E25C46
:1048E000039BE15CFFF7C3FD2069FFF7E0FD05B026
:1048F000F0BDC046605E00002D0200002F020000E7
:1049000018440041144400412E020000802210B5DA
:1049100004005200002100F0A7FE23000022FC3317
:104920005A6020009A60DA6010BD0000F0B585B0D2
:104930001D000AAB1B78040000930BAB1B7816001C
:1049400001930CAB1B780F0002930DAB1B78039304
:1049500000234360FA239B008360124B08330360FB
:104960001430FFF7D3FF20002130FF30FFF7CEFFD8
:104970008B236A469B002761E6540B4B1278E55463
:104980000A4B2000E2546A46094B1279E2546A4607
:10499000127A0133E2546A46127B1033E25405B0B6
:1049A000F0BDC046C06100002D0200002E020000D4
:1049B0002F020000F7B51D0008AB1B780400009320
:1049C00009AB1B781600019300234360FA239B0078
:1049D0008360114B0F00083303601430FFF796FF1C
:1049E00020002130FF30FFF791FF8B236A469B00A8
:1049F0002761E654094B1278E554094B2000E25434
:104A00006A46084B1279E2548C22313BFF3B9200FC
:104A1000A3541032A354FEBDC06100002D0200005B
:104A20002E0200002F020000F7B5EFF31083009371
:104A30000123019372B680260200FF25019BFC3200
:104A40007600013B5C1C0FD0D4685F1EB44209D0D5
:104A500054680155546801342C405460D4680134C2
:104A6000D460EEE73B00EDE768460193FFF7A6FE52
:104A7000F7BD13B5EFF3108300930123019372B6D2
:104A8000019B5A1E0192002B15D00300FC33DA68FB
:104A9000002A0DD09A68845C9A680132D2B29A607A
:104AA000DA68013ADA606846FFF788FE200016BD32
:104AB00001246442F7E701246846FFF77FFE644261
:104AC000F4E710B504000069FFF719FD002805D0D0
:104AD0002069FFF724FD2069FFF716FD2069FFF725
:104AE000FEFC00281BD02069FFF719FD0100200003
:104AF0001430FFF799FF8C239B00E35CFF2B0ED053
:104B00002300FC331A6A80235B009B1A092B06DC06
:104B10008D238F229B009200E358A2581A602069CF
:104B2000FFF7F8FC00280ED087239B00E318DB6812
:104B3000002B14D020002130FF30FFF79AFFC1B2C4
:104B40002069FFF7F0FC2069FFF7CEFC002805D0B4
:104B50002069FFF7CDFC2069FFF7BDFC10BD20697F
:104B6000FFF7EFFCEFE70000F8B5040000690D0067
:104B7000FFF7D0FC87239B00E618002802D0F368DB
:104B8000002B34D001278022F3685200934223D1B6
:104B9000EFF310833B4210D1174B5B68DB05DB0D55
:104BA000F1D0103B5BB2002B10DAF13A1340083B16
:104BB0009B08124A9B009B181B682069FFF7AAFC00
:104BC0000028E0D02000FFF77CFFDCE79B08C03323
:104BD0000B4A9B009B58F0E720002130FF30290052
:104BE000FFF722FF2069FFF7A8FC0120F8BD29008C
:104BF0002069FFF798FCF8E700ED00E01CED00E00D
:104C000000E100E010B504001430FFF732FF8C2300
:104C10009B00E35CFF2B0ED02300FC331A6A802339
:104C20005B009B1A0A2B06DD8E238F229B009200CD
:104C3000E358A2581A6010BD10B500F0F3FC10BD87
:104C40000020704770B50F26CB1D0139020032409D
:104C5000D5B22C0000093034092A00DD07341C705D
:104C6000013B8B42F2D170BD10B50C000B4B1868A4
:104C7000FFF7E8FF21000A4B08311868FFF7E2FF51
:104C80002100084B10311868FFF7DCFF2100064BAC
:104C900018311868FFF7D6FF202010BD0CA0800047
:104CA00040A0800044A0800048A0800008B4024BCF
:104CB0009C46103808BC6047694C0000704770473C
:104CC0003F20704713B56B460268D97107335468AB
:104CD00019000122A04716BD70B50A260B7892B0C4
:104CE0006E44023305000B703C220021300000F0BE
:104CF000BBFC394801AC06903848242107900620B7
:104D000020776846364AA1742281364A364BA28102
:104D1000FD3AFF3A8018C177684623390630C177DB
:104D200068460730C17702A8C1770720F2770326CB
:104D300008316944C87703A9CE7710212B366E4419
:104D40003170092621851F3169440E700CA9053E7A
:104D50000E7033212380022369440B7006360DA99F
:104D60000E7022493536A1863B216E44307010A862
:104D70006274E27702703D3269446A440B701370CA
:104D800040210022E37023716371A37341336B44AC
:104D9000218719705A702B7DC039A370A372637775
:104DA0000133DBB2A3776A7D0B200D006844154305
:104DB000C5773120684403703A23501C6B44187047
:104DC000412302320A436B441A70210042220848F0
:104DD00000F0AEFA12B070BD1001042402060524E2
:104DE0000904000001020000080B00000705000094
:104DF000E40C002008B4024B9C46103808BC604705
:104E0000D94C000070B5027D0B790C0000259A4248
:104E10000BD10B784E78A12B09D1212E05D1072279
:104E20001B491C4800F084FA0135280070BD212B75
:104E3000FBD1202E22D107221549164800F0BAF9DD
:104E40009622134BD200196891421DD1DB79DB0702
:104E50001AD4FA20FFF79CFA00210E4800F092FACB
:104E60000125232EE1D1E378A2781B0213430A4ADD
:104E700000210848136000F085FAD6E7222EEFD112
:104E80008A78034BDA71DBE7FFF78CFAE4E7C04678
:104E900014000020E40C00201000002008B4024B95
:104EA0009C46103808BC6047054E000010B508222B
:104EB0000021024800F0D8FB10BDC04614000020BD
:104EC00010B5417D006A013100F0ACF8034B1B685E
:104ED00001335A1E9341181810BDC0461C00002013
:104EE00010B5417D006A023100F0B2F810BD10B576
:104EF000417D006A023100F079F810BD70B50D00F7
:104F0000417D0400130002312A00006A00F066F9B6
:104F1000002801D10123636070BD000010B5054C6D
:104F200023685A1C04D103685B699847030020601A
:104F3000180010BD1C000020074A0300106810B5BF
:104F4000411C03D001235B42136010BD597D186AD8
:104F5000013100F0F3F8F8E71C00002010B5FEF76F
:104F600087FFF423FF330024984207D9044B0A201B
:104F7000DC79631E9C41E4B2FEF7B0FF200010BD57
:104F80001400002000207047FA239B0010B58360B6
:104F90000F4B0022C3820300283383610D4B0400B2
:104FA0004260C2611800503323610830631D2162E2
:104FB0002060DA778323A362813BE362803323633B
:104FC00000F030FA2100103100F0FEF9200010BD91
:104FD00003020000F461000010B502490248FFF727
:104FE000D3FF10BDE40C0020880C00200B4BCAB28C
:104FF0000B488901C9185301C318596199690832CE
:10500000890B89039961036852019A180223D371AD
:105010005179823B0B4353717047C0460C0D002001
:1050200094110020084B8A00D05810B5002803D0F6
:1050300003689B68984710BDC9B2044B49015918D1
:1050400088688004800CF6E7E80C002094110020AA
:1050500010B50C00FFF7E6FF00280CD0064BE4B2B9
:105060001B68083464011C19802362795B42134376
:1050700063710223E37110BD94110020F0B51C0090
:105080002A4B85B01B6807000D000292002B4AD006
:10509000274B8A00D058002808D0036822005B689C
:1050A000029998470400200005B0F0BD3800FFF7D2
:1050B000B9FF844204D929003800FFF7B3FF040088
:1050C0000121EBB21B4E03935B010193F21893682D
:1050D0009B0B9B039360019A336802989B18FF33E4
:1050E0005A7A0A435A72144BA901C918220000F0D7
:1050F000B2FA002CD7D029003800FFF793FF002820
:10510000D1D14021039B326808335B01D318187951
:10511000014319710121D971019BD318FF339A7A88
:105120000A439A72BFE701246442BCE79011002051
:10513000E80C002094110020CC0E002013B56B4623
:10514000DC1D22000123FFF799FF012801D12078FF
:1051500016BD01204042FBE770B5CBB2124A13489E
:105160005C0189018918021951609168104D08335A
:105170000D40802149032943402591609168890BA6
:105180008903916001685A018A18167935431571AF
:1051900095796D06FCD55B01C918CB79DB07FCD589
:1051A00000198068C0B270BDCC0E002094110020A0
:1051B000FF3F00F070B50D0000211400FFF7CCFF99
:1051C000A04200D9200000230349A34203D0CA5CB7
:1051D000EA540133F9E770BDCC0E0020F0B51E0093
:1051E0003A4B85B01B680F000192002B35D080230D
:1051F000DB019E4231D80025354B8A01D31802933A
:10520000002E2CD0334B1B680393FF233B401C0024
:1052100000930834039B64011C19A379DB0921D096
:105220002D4B2E49186800F035F92D4B17215843A6
:1052300000F030F92B4BE279920713D4DA5D002AA3
:1052400001D10138F7D20122DA55009B5A01214BD6
:105250009B189A69920B92039A6101256D4228006E
:1052600005B0F0BD00221F4B3400DA553F2E09D99E
:10527000009B40245A01174B9B1880229969120603
:105280000A439A6122000199029800F0E4F9009B18
:10529000A1045A010F4B890C9B18029A2D195A61CF
:1052A0009A69361B920B92030A439A61009B039AF8
:1052B00008335B01D3180222DA715979823A0A4322
:1052C0005A71019B1B1901939AE7C0469011002067
:1052D0000C0D0020941100200800002040420F0017
:1052E00070110100040D002070B50D001C000D4B65
:1052F000AE01F61811003000220000F0ACF9EDB25A
:1053000009496D014D196E61AB69084A20001340CF
:10531000AB61AB69A2049B0B920C9B031343AB6183
:1053200070BDC0460C0D002094110020FF3F00F01E
:10533000F7B5104B01901B780F001500002B0CD116
:105340000D4B16001C78002C09D00C4E0C483488EC
:105350002018641900F07FF934802800FEBD002E6B
:10536000FBD03A19330000210198FFF7BDFF241844
:10537000361AF4E78C1000208D1100208E110020C9
:105380008D100020CBB204495B01C9188B699B0BBF
:105390009B038B617047C0469411002080235B0003
:1053A0000380002343600733037270478300014882
:1053B000C0187047BC0C0020014B024A1A607047AD
:1053C0009411002000500041F8B542788B790D000F
:1053D000017A9B18040000208B4222DC6368834220
:1053E00019D16560002623786A71EA792B719B18C0
:1053F0002370AB79B34213D9AB68B7006078DF197B
:10540000FFF7D4FF3B68013603606378F6B20133DF
:105410006370EEE70B00D9680029FBD1DD60E1E79E
:105420000120F8BD70B50126054D064C2B683342AE
:1054300003D12000FFF7B2FF2E60200070BDC046F0
:10544000981200209C120020F7B506000D000C00F9
:105450008B180193019B671B9C4207D0336821780E
:105460001B683000984701340028F3D13800FEBD96
:105470000B0010B50100180000F098F810BD0000F6
:1054800002B4714649084900095C49008E4402BCD7
:105490007047C046002243088B4274D303098B42F5
:1054A0005FD3030A8B4244D3030B8B4228D3030CF4
:1054B0008B420DD3FF22090212BA030C8B4202D396
:1054C0001212090265D0030B8B4219D300E0090ABE
:1054D000C30B8B4201D3CB03C01A5241830B8B42C7
:1054E00001D38B03C01A5241430B8B4201D34B03B0
:1054F000C01A5241030B8B4201D30B03C01A524115
:10550000C30A8B4201D3CB02C01A5241830A8B4299
:1055100001D38B02C01A5241430A8B4201D34B0282
:10552000C01A5241030A8B4201D30B02C01A5241E6
:10553000CDD2C3098B4201D3CB01C01A524183099A
:105540008B4201D38B01C01A524143098B4201D3D4
:105550004B01C01A524103098B4201D30B01C01AFF
:105560005241C3088B4201D3CB00C01A5241830879
:105570008B4201D38B00C01A524143088B4201D3A6
:105580004B00C01A5241411A00D201465241104606
:105590007047FFE701B5002000F006F802BDC046E5
:1055A0000029F7D076E770477047C04610B5040071
:1055B00004481300002804D00A000220210000E063
:1055C00000BF10BD0000000070B500260C4D0D4C52
:1055D000641BA410A64209D1002600F039F90A4D37
:1055E0000A4C641BA410A64205D170BDB300EB5851
:1055F00098470136EEE7B300EB5898470136F2E7DB
:10560000840000208400002084000020A8000020E6
:1056100010B5034B0100186800F078F810BDC046C3
:105620002000002010B5034B0100186800F024F89A
:1056300010BDC0462000002030B50024A24201D198
:10564000002005E0035D651C0C5DA34201D0181B22
:1056500030BD2C00F2E7002310B59A4200D110BDF6
:10566000CC5CC4540133F8E703001218934200D114
:10567000704719700133F9E770B50500002910D0A3
:105680000C1F2368002B00DAE418280000F0D0F883
:105690001D4A1368002B05D163601460280000F0D8
:1056A000C8F870BDA34209D9216860188342F3D1BC
:1056B00018685B6841182160EEE713005A68002AF9
:1056C00001D0A242F9D919685818A0420BD120681C
:1056D0000918581819608242E0D1106852684118C0
:1056E00019605A60DAE7A04202D90C232B60D5E793
:1056F00021686018824203D1106852684118216005
:1057000062605C60CAE7C046A8120020032370B53F
:10571000CD1C9D43083506000C2D1ED20C25A94238
:105720001DD8300000F084F8254A146821000029B3
:1057300019D1244C2368002B03D1300000F044F829
:1057400020602900300000F03FF8431C2BD10C23CF
:105750003000336000F06DF803E0002DDFDA0C2339
:105760003360002070BD0B685B1B19D40B2B03D971
:105770000B60CC18256003E04B688C420DD11360A0
:10578000300000F056F8200007220B30231D904314
:10579000C31AE7D05A42E250E4E763600C00EFE737
:1057A0000C004968C3E70323C41C9C43A042E1D01A
:1057B000211A300000F008F8431CDBD1C7E7C046CF
:1057C000A8120020AC120020002370B5064C050082
:1057D0000800236000F02EF8431C03D12368002B3F
:1057E00000D02B6070BDC046B4120020C9B203784F
:1057F000002B04D08B4200D170470130F7E74B42B9
:10580000594149420840F7E730B50500002A00D168
:1058100030BD0C78013A6B1C2C700131002C05D185
:105820009A189A42F4D01C700133FAE71D00EDE794
:1058300070477047044A1368002B00D1034B1818B7
:10584000106018007047C046B0120020B812002047
:10585000F8B5C046F8BC08BC9E467047F8B5C046CF
:10586000F8BC08BC9E4670475550444154452E42F2
:10587000494E00000000000000000000152200005A
:105880003922000029220000612200006923000063
:105890008D220000A12200002F007C3C3E5E2B3DAB
:1058A0003F2F5B5D3B2C2A225C00000000000000C3
:1058B00000000000AD34000049540000A52F000096
:1058C000E52B0000000000000000000000000000C8
:1058D00000000000000000000000000000000000C8
:1058E00000000000000000000000000000000000B8
:1058F00000000000000000000000000000000000A8
:105900000000000000000000000000000000000097
:105E0000080000001000000020000000400000001A
:105E100080000000000100000002000000040000FB
:105E2000010203000000000000000000653A0000CD
:105E3000D93A0000773A0000813A0000453A000064
:105E4000E53A0000293B0000653C0000653B00008E
:105E5000633A0000633A0000153C0000673A000016
:105E60000000000016000000080000001C000000F8
:105E7000FF000004000406000000000017000000FE
:105E8000080000001C000000FF00010401040700DE
:105E9000000000000A000000080000001C000000D4
:105EA000120000010001FF00000000000B000000D4
:105EB000080000001C000000130001010101FF00A8
:105EC000010000000A000000080000001C000000A3
:105ED000FF00000500050A00010000000B000000A3
:105EE000080000001C000000FF00010501050B0078
:105EF0000000000014000000080000002C0000005A
:105F0000FF00020002000400000000001500000075
:105F1000080000002C000000FF0003000300050043
:105F20000000000010000000020000001C00000043
:105F3000FF0000020002000000000000110000004D
:105F40000200000004000000FF00FFFFFFFF01004F
:105F50000000000013000000020000001C00000010
:105F6000FF0001030103FF00000000000800000023
:105F700003000000040000001000FFFFFFFF1000FE
:105F80000000000009000000030000000400000001
:105F90001100FFFFFFFFFF000100000017000000DD
:105FA0000300000004000000FF00FFFFFFFFFF00F0
:105FB00001000000160000000300000004000000C3
:105FC000FF00FFFFFFFFFF000000000002000000D5
:105FD00001000000060000000000FFFFFFFFFF00BF
:105FE00001000000020000000100000004000000A9
:105FF0000A00FFFFFFFF0200010000000300000095
:1060000001000000040000000B00FFFFFFFF030081
:106010000000000004000000010000001C0000005F
:10602000040000000000FF00000000000500000068
:10603000010000001C000000050001000100FF003D
:106040000000000006000000010000000400000045
:106050000600FFFFFFFFFF00000000000700000038
:1060600001000000040000000700FFFFFFFFFF0029
:106070000000000018000000060000000000000002
:10608000FF00FFFFFFFFFF000000000019000000FD
:106090000600000000000000FF00FFFFFFFFFF0000
