:10200000008000200D3E0000F53D0000F53D000081
:1020100000000000000000000000000000000000C0
:10202000000000000000000000000000F53D00007E
:102030000000000000000000F53D0000613E0000CF
:10204000F53D0000F53D0000F53D0000F53D0000C8
:10205000F53D0000F53D0000F53D0000F93D0000B4
:10206000F53D0000F53D0000F53D0000F53D0000A8
:10207000F53D0000453D0000353D0000F53D000008
:10208000F53D0000F53D0000F53D0000F53D000088
:1020900000000000F53D0000F53D0000F53D0000AA
:1020A000F53D0000F53D0000F53D0000F53D000068
:1020B0000000000010B5064C2378002B07D1054B1B
:1020C000002B02D0044800E000BF0123237010BDA4
:1020D000B000002000000000B4620000044B10B506
:1020E000002B03D00349044800E000BF10BDC046E8
:1020F00000000000B4000020B4620000F0B5384CCD
:10210000A54400AF01F0C2FF03F05EFA012001F028
:10211000E5FE344C0021200000F0ECF900284CD002
:10212000314E2000310000F0C1FA7860002844D020
:102130000C25210078190123320000F071FA78197A
:1021400000F00DF9C0210500C901884245D90C23D2
:10215000F81800F0F0F88021244B0902EB181A005F
:10216000234880253B6001F05BFC2D0208212823D9
:1021700080227818C1181C3B9200F81800F0D2F8A1
:1021800008218023282279188A189B0029001848E2
:1021900001F0F6FB8022174B9200EB18AD183A685D
:1021A0009342E3D30C23F81800F0F2F87B68002B7D
:1021B00003D03100200000F085FA80231B021A684A
:1021C00082F308880C4A93600C4B1B681847002068
:1021D000BD468D239B009D44F0BD00237B60E1E75D
:1021E000CCFDFFFFE40000206858000000A0FFFFC6
:1021F000CC0000200082FFFF00ED00E00480000022
:10220000002210B51100024801F0A2FB10BDC0462B
:10221000CC00002013B56B460268D97107335468AF
:1022200019000122A04716BD10B5036A181E02D07E
:102230001A689268904710BD10B5036A0400002B1D
:1022400003D101230020636010BD0020586092B2CA
:10225000206A01F04DF8236A5B68002BF1D1F3E7A7
:1022600010B5006A002802D0012100F049FE10BD1F
:1022700013B56B46DC1D0122210000F06FFD012823
:1022800001D1207816BD01204042FBE710B5006A5D
:10229000002802D0FFF7ECFF10BD01204042FBE711
:1022A00070B500240500006AA04209D0FFF7E0FFE6
:1022B0000400431C04D0286A0369591E00F0F0FD95
:1022C000200070BDF8B5FA2300259B0083600D4BFC
:1022D000040008334560036028200F00160003F057
:1022E00097F92062A8420AD02822390003F0B3F9F6
:1022F00020000C223100103003F086FA25772000F0
:10230000F8BDC04674580000FA2200239200826093
:10231000034A436008320260036203747047C04698
:102320007458000010B5036A0020834202D01800E0
:1023300000F014FD10BD10B5036A0020834205D0E3
:10234000180000F0ADFD431E9841C0B210BD036AF5
:10235000002B01D01869704701204042FBE7036A57
:10236000181E00D0D869704770B50500006A0028B3
:102370000BD02800FFF7F3FF04002800FFF7E7FF6A
:10238000024B201A984200D9180070BDFF7F000050
:1023900010B50400006A002806D000F0F7FD206A9E
:1023A00003F040F90023236210BD000010B50A00BD
:1023B0000B498AB000230091694601934B720133A7
:1023C0000100684600F0C6FE0400631E9C41E4B2B2
:1023D000002802D0684600F0D9FD20000AB010BDE8
:1023E000B458000010B50123002A04D000F068FFA3
:1023F000431E9841C3B2180010BD70B501220400FD
:102400000D0001F005FA02000120002A03D1290085
:10241000200001F0FDF970BDF0B50B68C45C2F3CE5
:1024200065426C411B191F001E000C37C55C9C1BCC
:102430002F2D08D0002D06D001339C1B013C1555D3
:10244000BB42F3D10C2400251555C25C2F3A5442EF
:1024500062419B180B60C05C431E9841C0B2F0BD46
:10246000F0B50E009FB00393002334000190204884
:102470000AAF14A902927B600A907B7215931490A4
:102480004B72059306AA05A90198FFF7C5FF012223
:1024900042400090029DD2B2039B06A92000A847AB
:1024A000051E05D1B44218D1002528001FB0F0BD8B
:1024B000009B002B0ED0012306AA2100380000F05B
:1024C00049FE0500B4420CD0200000F05FFD002D55
:1024D0000AD1E9E70125B442E7D0200000F056FD1B
:1024E000E3E70028E0D014AC23003C001F00C9E75C
:1024F000B4580000030070B541331B7804000D0090
:10250000002B02D0383000F041FD2A0001212000CC
:1025100000F0C8FA002801D1002070BD2500103558
:1025200021002800FFF769FF0028F5D020002900CE
:10253000383000F0E9FB431E9841C0B2EDE70000DF
:102540004B6843600A4B03600B7A03724B7A437209
:10255000CB68C3600B6903614B6943610B7E0376F3
:10256000CB69C3610B6A03624B6A43627047C04622
:10257000B4580000F0B59DB00393002308AD02925B
:1025800012AE264A07006B60736010312800089273
:102590006B721292737200F0B7FB029C2F21200025
:1025A00003F024F9002830D023782F2B01D10134F7
:1025B000F4E7001BC0B2031C0C2800D90C23DBB2CB
:1025C0001A00210004A8019303F01EF900230199C9
:1025D00004AA3000535400F0D9FC012304AA2900B6
:1025E000300000F0B7FD002806D10C4B78603B604E
:1025F000787238001DB0F0BD019B2800E41800F08F
:10260000C5FC2B0035001E00C8E7029B2900E41A18
:10261000039B38001C60FFF793FFEAE7B458000003
:10262000F0B51400A3B004AE0193070003AB300073
:10263000FFF7A0FF039BE4182378002B09D131009A
:1026400018A8FFF77DFF174A18A93800FFF73AFED0
:102650000BE000230EAD6B60134A6B72737A0E921F
:10266000002B05D13800FFF74FFE380023B0F0BD36
:10267000019B22003100280000F06CFD0028F1D001
:10268000300000F083FC0623019A1A40062A03D189
:102690001599280000F004FC290018A8FFF750FF46
:1026A0002200D1E798580000B458000010B50C0083
:1026B000010000233831024A2000FFF7D1FE10BD8F
:1026C000AD23000010B50C00010000233831024A90
:1026D0002000FFF7C5FE10BDE52300000221084BD6
:1026E00000221961190030310A7006495A719A7135
:1026F0009A721A73DA63996341331A707047C0464D
:10270000E4000020B458000000B5062904D91623BF
:1027100000214371080000BD104B05291AD808009C
:10272000002202F0ADFE03090F1113150C491960C8
:1027300001211A715971EDE71A71012209485A7184
:102740001860E7E70849F2E70849F0E70849EEE7CB
:102750000849ECE7084A1A600022E9E74C0100202A
:1027600040787D0100093D0080841E0040420F003A
:1027700020A1070090D0030048E80100034B044A61
:102780001A6000221A7101325A7170474C01002000
:1027900000093D0010B50100014801F06CF910BDC1
:1027A0008007002010B5FF21014801F064F910BD39
:1027B0008007002070B50C0001F05AFB0500FFF700
:1027C000F1FFFF2806D001F053FB401BA042F6D3D7
:1027D000002070BD0120FCE710B50121007901F057
:1027E0004BFD054B1A78002A04D0002203481A70CA
:1027F00001F0B8F910BDC046480100208007002054
:1028000010B583790400002B0DD023895A1C228136
:10281000054A934202D8FFF7C5FFF6E72000FFF70D
:10282000DBFF0023A37110BD0102000070B504009E
:1028300001F01EFB962506006D00FFF7B3FF0300B5
:10284000E072FF280BD101F013FB801BA842F4D9E2
:102850000F2320006371FFF7BFFF002070BD012030
:10286000FE2BFBD00D23F4E770B505000800140023
:10287000FFF790FF80239B00E61820780134FFF7D4
:1028800089FFB442F9D1FF20FFF784FFFF20FFF753
:1028900081FFFFF787FF1F23E87203400120052B0C
:1028A00005D0112328006B71FFF796FF002070BD43
:1028B00010B5084B04001A78002A06D101321A70AC
:1028C000054B064806CB01F0CDF92079002101F037
:1028D000D3FC10BD480100204C01002080070020DF
:1028E000F8B505000E001700FFF78AFF2800FFF774
:1028F000DFFF962128004900FFF75CFF40203043AE
:10290000FFF748FF18243800E040083CC0B2FFF74A
:1029100041FF23000833F6D19520002E03D06A3002
:10292000082E00D17838FFF735FF0024FFF73AFF73
:1029300043B2E872002B04DAFF2C02D00134E4B277
:10294000F4E7F8BDF8B516001D009A1880230400BE
:102950009B009A4216DC8379002B05D003688B42DA
:1029600002D10389B3421AD9237B2160032B00D003
:1029700049020A0020001121FFF7B2FF071E06D00E
:10298000032363712000FFF727FF002028E02000C9
:10299000FFF74CFF0028F5D001232781A37123897D
:1029A000B34208D3069E7719B7420AD0FFF7FAFE62
:1029B00030700136F8E7FFF7F5FE238901332381F4
:1029C000EDE72389ED18A37AADB22581002B03D062
:1029D000044B01209D4203D92000FFF711FF012085
:1029E000F8BDC046FF01000013B504000120002B14
:1029F00004D0049800902000FFF7A4FF16BD8023A8
:102A000007B59B0000920022FFF79CFF0EBDF8B5B2
:102A10001D00040016001223002924D0037B032B81
:102A200000D049020A0020001821FFF759FF0423B3
:102A3000071E18D13200FE212000FFF715FF0028E5
:102A400012D0002D19D0962120008900FFF7B2FE88
:102A50001523002807D03A000D212000FFF740FF82
:102A6000002806D0142363712000FFF7B5FE002074
:102A700007E0FFF797FE0028F4D12000FFF7ACFE37
:102A80000120F8BD70B50500FFF712FFFFF78AFEC1
:102A900004002800FF3CFFF79FFE601E8441E0B267
:102AA00070BD0000F7B50025027105738572857150
:102AB00045710400019101F0DBF901210700207943
:102AC00001F08EFB0121207901F0D6FB424E30004F
:102AD00001F0A0F80122414B41491D715A71196062
:102AE0005A68300001F0BEF80A35013DFF20EDB212
:102AF000FFF750FE002DF8D1300001F033F8FA2630
:102B00002000FFF7D5FEF600002220001100FFF79D
:102B1000E7FE0500E07201280BD001F0A9F9C01B07
:102B2000B042F1D9012320006371FFF755FE002068
:102B3000FEBDD522082152002000FFF7D1FE04235C
:102B400018421BD02573257BFA26023D6B425D415E
:102B5000F600AD07002237212000FFF7C1FE2A0052
:102B600029212000FFF7BCFE021EE07213D001F005
:102B70007FF9C01BB042EDD90823D4E71D00FFF751
:102B800011FE013DEDB2E072002DF8D10223AA281A
:102B9000C9D12373D7E7237B022B15D13A2120001B
:102BA000FFF79EFE002801D00623BCE7FFF7FAFDE1
:102BB000C0231840984201D1BD3B2373FFF7F2FDBB
:102BC000FFF7F0FDFFF7EEFD2000FFF705FE01998E
:102BD0002000FFF799FDABE7800700204C010020A3
:102BE00090D003007047020010B50C3204000121A0
:102BF000406A00F083FD00280ED0236A002B06D126
:102C0000E368227A236280235B42134323722023EA
:102C10000120227A1343237210BD70B50600FFF71E
:102C2000E2FF002801D1002070BD736AF2681C79B0
:102C3000951E1A7C95405A69AD186419A54206D0B4
:102C4000013C200000F0A0FC0028F7D1EBE7736AFC
:102C500001201A7C80239B009340F269D318F36112
:102C6000E2E7000010B50400406900F067FC0028AE
:102C700003D0207E014B4001C01810BD5C01002034
:102C80000A00F0B50B000E000700202187B00B32C0
:102C9000197001339A42FBD10723002501931EE0EE
:102CA0001022184902A802F0D6FC002302AAD25C26
:102CB000002A04D001339442F8D1002020E0019B87
:102CC000AB42FAD32300213B5D2BF6D8403B192BB6
:102CD00001D8203CE4B26B1C7455DDB201373C785E
:102CE000002C08D02E2CDBD1019B0A2BE5D00A2327
:102CF00008250193F2E730782038431E9841C0B28E
:102D000007B0F0BD9A58000070B5427A04000D007B
:102D1000002A01D0002070BD4B1CDB7F102B0ED190
:102D20000E3B43724B8C02625B01C36100230120A6
:102D300065622072E360236163612376EBE7202BF9
:102D4000E8D102001D3B4372496A1C32016228002F
:102D500000F06AFC0028E9D1DCE70000F0B5437A16
:102D600085B004000F000392002B03D101204042E4
:102D700005B0F0BD037ADB07F8D50269C3699B1A79
:102D8000039A9A4201D99BB20393039B0293029B3D
:102D9000002B5ED02369627ADD05ED0D606A5E0A64
:102DA000022A25D1406A80238019029E9B005B1B6A
:102DB0009E4200DD9EB24022237A134203D180233B
:102DC0009B009E4203D1254B1B6883422CD10021DE
:102DD00000F0B4FB0028C9D0214B3900ED182A00BF
:102DE000AB19934232D01078013208700131F8E704
:102DF0000279013A1640F6B2002D05D1002E03D11A
:102E0000002B09D1236AE360636AE268901E1A7C92
:102E10005B699040C018C6E72200E1680C3200F000
:102E2000D3FB0028F0D1A1E701000E480097330042
:102E30002A000068FFF7D8FD002897D0BF19236942
:102E40009B192361029B9E1BB3B29FE75D1B7F19F9
:102E5000F5E76B460C20185E8AE7C04604000020A8
:102E60005C0100206003002037B5437A0500002094
:102E7000012B0BD92B690122DC056B462800D91DDB
:102E8000240FFFF76BFF012801D000203EBD2B6906
:102E900060011F332B61014BC018F7E75C01002074
:102EA00070B5437A04000E00002B01D1002070BDE4
:102EB000C2698A42FAD3022B02D126610120F6E7C9
:102EC000002901D1E160F8E7436A01691A7C751EA7
:102ED00009324B1ED340D540AB4201D800290DD159
:102EE000236AE360002DE8D02200E1680C32606ABA
:102EF00000F06AFB013D0028F4D1D7E7ED1AF1E7B5
:102F000070B5437A05000E00002B01D1002070BD82
:102F1000037A7F2B2DD90121FFF7A4FE041EF5D0E3
:102F20006B7A012B07D8EB691A0A037742771A0CE0
:102F30001B0E8277C3772B6A9BB2A3761B0AE376BC
:102F40002B6A1B0C23751B0A63750F4B1B68002B28
:102F50000BD021002000163118309847637E227E66
:102F60001B021343A3741B0AE3747F222B7A1340C2
:102F70002B72002E03D110222B7A93432B72300038
:102F800000F0B6FAC3E7C0465401002010B5012195
:102F90000400FFF7B5FF002802D000230120637270
:102FA00010BD0000F8B5437A0500012B01D00020C8
:102FB000F8BD037A9A07FAD55B0712D4174B186845
:102FC000FFF760FD0028F2D12A7A202714003C4048
:102FD00010D001002800FFF793FF2B7ABB432B7220
:102FE000E5E7C16903698B42E8D0FFF759FF002884
:102FF000E4D1DCE70A4B1B68002B03D0200000F073
:103000005FFAD4E7102328691343C0052B72C30D60
:1030100080208000C01A80B2CAE7C046600300204A
:103020005C03002073B50400407A0D00012801D034
:10303000002076BD237A9B07FAD5E3698B42F7D34C
:10304000002BF6D020002669FFF72AFF0028EFD0DA
:10305000606A002D19D1216A00F0B2FB0028E7D088
:1030600025628023227A5B421343E56123720121AA
:103070002000FFF745FF0028DAD02900B54200D92B
:1030800031002000FFF70CFFD3E701AAE16800F050
:103090009BFA0028CCD0606A0199431CDB7F103B6F
:1030A0005A1E9341094A5B421340094A9B189942B0
:1030B000D7D200F085FB0028BAD0064AE168606AE2
:1030C00000F0D8FA0028CCD1B2E7C0460000FF0FCC
:1030D000F8FF0000FFFFFF0F1C4B70B515004A0101
:1030E000D31811220400D87A104204D0313215428C
:1030F00001D0002070BD1820154A21761268626147
:103100009A8A12042262598B11432162DA7A0240B0
:1031100010D1DB69E361012363720F2300212B408F
:103120002372E160216101206B06E3D52000FFF7E7
:1031300079FFDFE7102ADCD12200606A1C3200F040
:1031400073FA0028D5D00423E6E7C0465C010020CE
:1031500004000020F0B50500447A002087B00E007E
:103160001F00844206D103A91000FFF789FD002843
:1031700002D1002007B0F0BD736A6B62F460346165
:103180003369F26993421DD20F225B091A40300065
:103190000192FFF769FE011EEBD00378002B05D0EA
:1031A000E52B48D1002C03D00124E9E7002C05D100
:1031B0006B461B792B76334B1B686B610B78002BAE
:1031C000F2D1012412233B40122BD2D1002C43D048
:1031D00001212800FFF746FD041ECAD0202200214D
:1031E000200002F041FA0B2203A9200002F033FA7A
:1031F000254B1B68002B3CD0210020000E311030E5
:103200009847637C227C1B021343FF221A401B0A4F
:10321000E3746376E37BA2742276A27B1B021343E2
:10322000A3751B0AE375012000F062F90028A0D005
:10323000297E3A000CE00B2203A802F0FDF90028D9
:103240009ED130233B40302B00D192E73A000199C8
:103250002800FFF741FF8DE7737A022B00D188E742
:103260003000FFF7DAFC002800D182E72C76074C0B
:10327000B4E72122A3730823227407326274E37334
:10328000BFE7C04604000020540100205C0100207C
:1032900010B500210400FFF7C5FE002801D1002071
:1032A00010BD01212000FFF7DDFC0028F7D0E52349
:1032B000037000230120637200F01AF9F0E70000A8
:1032C00010B50A4B8AB00833002400936B460A00FD
:1032D0005C720100022368460194FFF73BFFA042A5
:1032E00002D06846FFF7D4FF0AB010BDAC5800000A
:1032F000F0B5437A87B004000F000392012B2ED162
:10330000037A02939B072AD5029B5B071FD4039B7A
:103310000093009A2369002A00D199E0606A5D0A4F
:103320000279DB05013A1540DB0DEDB20193002D6A
:103330001AD1002B18D1E16800294BD1236A002B48
:1033400011D12000FFF74FFC00280DD107E0C16923
:1033500003699942DBD0FFF7A3FD0028D7D10123F1
:103360000020636089E0E3608023019A9B009B1A40
:103370006A461688009A9BB29A4200D91E1C626A5D
:10338000E368117C023B8B405269B6B29B185D1911
:1033900080239B009E4232D13D4B1A68AA4202D143
:1033A000012252421A60029B3A481A09012329005D
:1033B000934300683A00FFF72AFB0028CFD0802310
:1033C0009B00FF18009B9B1B9BB2009323699E19D7
:1033D00026619EE705AA00F0F7F800284DD0636A41
:1033E000059A0133DB7F103B591E8B412A495B4212
:1033F0000B402A495B189A42A3D2E260B4E7019BD2
:10340000002B1CD12369E269934218D3012000F0FC
:103410006FF80028A3D01E4B214A1D6001231178AC
:103420000B431370019A1F4B3800D31819009A19D7
:103430008A420BD0057801300D700131F8E7012187
:10344000280000F07BF80028ECD188E7D31AB8E711
:10345000E169227A994205D2E36180235B421343FA
:10346000237206E0104B1B68002B02D0039B002B3D
:10347000F3D1237A1B0702D4039807B0F0BD0121D2
:103480002000FFF73DFD002800D168E7F4E7C046C3
:1034900004000020600300200000FF0FF8FF000080
:1034A000580100205C0100205401002007B56B4644
:1034B000D971073301221900FFF71AFF0EBD000072
:1034C00010B5084C030021680120002909D00648E6
:1034D000064A0068FFF79BFA002802D0002301206B
:1034E000236010BD5C030020600300205C0100200D
:1034F00070B50E4D04002B78002B01D101200AE09D
:1035000003000B490B480C4A09680068FFF77FFA73
:10351000002801D1002070BD002CEFD02000FFF763
:10352000CFFF0028F6D000232B70E7E758010020DA
:1035300004000020600300205C01002070B50E4EE6
:10354000050033680C0083420FD00120FFF7D0FF45
:10355000002801D1002070BD084B094A29001868D5
:10356000FFF74DFA0028F5D03560064B01201A7898
:1035700014431C70EFE7C0460400002060030020E5
:103580005C0100205801002070B504000120FFF705
:10359000AFFF002810D0002380221800074D9200B2
:1035A0005919013308709342FAD10120044B054A9E
:1035B0001C6013780343137070BDC0465C0100208B
:1035C0000400002058010020C36870B501330C00CE
:1035D00015008B4201D2002070BD461CF27FC369EA
:1035E000C809102A00D1080AC0180D4B1B68834275
:1035F00009D1F27F0B4B102A0BD1E4B264001B5BA4
:103600002B600120E8E70021FFF798FF0028F0D1A8
:10361000E1E77F221440A4001B591B011B09EFE7BF
:10362000040000205C010020F7B58027050016008B
:1036300000240191BF0001AA01992800FFF7C4FFEF
:10364000002812D03A002B7C9A406B1CDB7FA41818
:10365000103B5A425341054A5B421340044A9B18AF
:10366000019A9A42E7D301203460FEBD000001F0C8
:10367000F8FFFF0FF7B506000C000192012901D8F1
:103680000020FEBDC36801338B42F9D3471CFA7F8B
:10369000C569CB09102A00D10B0AED18134B1B6822
:1036A0009D4216D1FA7F124B102A19D16A46E4B214
:1036B000928864001A5301230E4918000A781A43AD
:1036C0000A70327E9A42DCD9B26855190A4A1560EE
:1036D000D7E700212800FFF731FF0028E2D1CFE72C
:1036E0007F221440019AA4001A51E4E7040000204C
:1036F0005C010020580100205C030020F0B5146834
:1037000087B0060002910192002C2AD000270134D4
:10371000F36825000133039300230093F368009AB4
:1037200093421AD9039B9D4201D902252C0005AA78
:1037300029003000FFF748FF00280ED0059A6B1CC7
:10374000002A15D102991A1B8A4212D11B4A29005C
:103750003000FFF78FFF002810D10027380007B096
:10376000F0BD029B0468013B5A425341DFB2CFE7F0
:103770001C00009A1D0001320092CFE7AC4208D233
:103780006B1E2A00190030000093FFF773FF009DA5
:10379000E1E7019B1968002905D1019B1C60002FFE
:1037A00008D10137DAE722003000FFF763FF002875
:1037B000F3D1D2E701343460D0E7C046FFFFFF0FFA
:1037C000022337B505000C00036001AA2100280080
:1037D000FFF7FAFE002815D0002221002800FFF78D
:1037E00049FF00280ED06B1CDB7F019C103B5A4226
:1037F0005341054A5B421340044A9B189C42E4D360
:1038000001203EBD0020FCE7000001F0F8FFFF0FA3
:10381000F8B53F4B0500141E196020D0042A01D9C9
:103820000020F8BD00210800FFF788FE0028F7D02F
:10383000631E384A1B01D318BF33FF331B785B0666
:10384000EED11B3424011419A38962891B0413438C
:10385000632BE5D9E388248924041C43E0D00021AC
:103860002000FFF76BFE0028DAD080222949920061
:103870000B7BC87A1B0203439342D1D10A7C002AF6
:10388000CED0CB89002BCBD04B7B002BC8D02A7657
:10389000002201202B712A7402002E7CB240934238
:1038A00004D0721C2A74072EF6D9B9E7C88A0028FA
:1038B00000D1486AA860CB891B19EB610A69120222
:1038C000120C6A840F7C7843C0185301124A686254
:1038D0009B185B121B186B610A7DC87C12020243A5
:1038E00000D10A6AE41AA418F4400C4AEC606B1C7C
:1038F000944203D80C22DA77012092E7084A9442D6
:1039000001D81022F7E7CA6A6A622022F3E7C046AC
:10391000600300205C010020FF010000F40F0000A4
:10392000F4FF000010B5054A0549064800F010F8FC
:103930000022054B05491A705A5410BD01040000BD
:103940000059000068070020640300200204000002
:1039500030B5094D094CAB685B035B0F9B001C59EC
:103960000460AB6801619BB243606343A400836061
:10397000C460426130BDC04600400041005E0000AE
:10398000F7B580261A4D01916F6803333E439B08BB
:103990006E60002B2BD0174E2E802E7DF107FCD5AC
:1039A0001E000768991BBF088F4219D9002E17D037
:1039B000FF2117788C433C430F4957780C403F0256
:1039C0003C439778013E39040C4F2740D478BFB26E
:1039D0000F43240601993C4310C101910432E0E7F2
:1039E000074B2B802B7DDB07FCD53300D1E7F7BDE0
:1039F0000040004144A5FFFFFF00FFFFFFFF00FF65
:103A000004A5FFFF044B054A4908D9611A801A7DB5
:103A1000D207FCD57047C0460040004102A5FFFF19
:103A200070B504000D001600E36829002000B342C1
:103A300005D2FFF7E7FFE368ED18F61AF4E7FFF7A2
:103A4000E1FF70BD70B506000C008D18AC4207D0C8
:103A5000336821789B683000984720700134F5E77F
:103A600070BD7047704710B50400406800F086FDD7
:103A70000023237610BD10B5406800F0A4FD10BDF2
:103A8000F8B5050040680C0000F098FD2B68E7B21F
:103A9000260A9B68012810D139002800FF27984783
:103AA0002B68BC4304439B683100280098470302FD
:103AB00020003840184380B2F8BD310028009847F4
:103AC000FF262B680002344004439B68390028001D
:103AD0009847B4432043EEE710B5040001F0ACF87A
:103AE000200010BD10B54B1C0BD0102909D0EFF3EE
:103AF000108472B6102905DD02234376002C00D114
:103B000062B610BD0123427E1A43427618224A4310
:103B10000449891816228A569340C2691343C36127
:103B2000ECE7C046605E00004B1C17D0102915D092
:103B3000437E9B0712D4EFF3108272B618234B43D7
:103B40000749C9180123897D49B28B40C16999434E
:103B5000C16100D14176002A00D162B67047C046EB
:103B6000605E0000437E002B05D09A0704D5837E5B
:103B7000002B00D062B67047DB07FCD5C369024A50
:103B80009BB2D360F7E7C04600180040037E002BCD
:103B900004D143768376C361013303767047000016
:103BA0007FB5036902AE04000D00029172608B4282
:103BB00003D1828AB3889A4226D02000062231009F
:103BC000103001F048FD606800F0EFFC7379E17A95
:103BD000013B581E8341227B00936068002300F064
:103BE00089FD33790021013BDBB2022B01D8074A62
:103BF000D15C074B2A009D4200D91A00606800F092
:103C0000A5FC606800F0C7FC7FBDC046205E0000D8
:103C1000001BB70070B518260400FFF7B7FF33008C
:103C20000821207A0D4D4343EB18595600F050FB04
:103C300033000821A07A4343EB18595600F048FBA3
:103C40000821607A4643AD19695600F041FB044BE8
:103C5000200006CBFFF7A4FF70BDC046605E0000E9
:103C6000C007002007B5437E00910192002B07D0CA
:103C70009A070AD5EFF310835A425341837672B6FE
:103C80000099019AFFF78CFF07BDDB07F8D5C369E0
:103C9000014A9BB29360F3E700180040F7B5002497
:103CA0000125194B194A5D711A601C71184B19488E
:103CB000083301930360184B184F4360184B194E9B
:103CC000038109233A00310045750461047583724C
:103CD000063B0476C472037301F0CAFB1248134B0F
:103CE000019A4360124B457503811D233100026028
:103CF00004613A00047583721A3B05730476C3723B
:103D000001F0B6FBF7BDC046C007002000093D002A
:103D1000245E000080070020580C002000000020D6
:103D20000A080000653A0000A0070020700C00207F
:103D30001B1A000010B5024800F0C3FE10BDC046BB
:103D4000C807002010B5024800F0BBFE10BDC046F9
:103D50000C0A00207FB51949194800F067FB194982
:103D6000194800F063FB1949194800F05FFB194935
:103D7000194800F05BFB194C1949200000F056FB74
:103D8000184E1949300000F051FB01250323310082
:103D9000019500930D220B33144800F00BFE1D23F8
:103DA0000393013B02931A3B0193009518331B22A6
:103DB00021000F4800F0BAFD7FBDC0460008004258
:103DC000500C0020000C0042580C00200010004253
:103DD000600C002000140042680C0020700C0020D1
:103DE00000180042780C0020001C0042C807002088
:103DF0000C0A0020FEE70000034B10B51B68002BE7
:103E000000D0984710BDC046800C002070B50F4907
:103E10000F4CA14204D100F089F8FEF76FF9FEE7DC
:103E20000C4D00238D42F6D0CA18E818A24205D3E3
:103E3000094B8242EFD00949002204E000680433B4
:103E40001060F1E704C38B42FCD3E4E700000020DC
:103E5000B0000020B8620000B0000020B8120020BE
:103E600010B500F060F8002801D100F051F810BD45
:103E7000014B18687047C046840C0020F7B5134802
:103E8000012284461249134C8E68636805689B0EB4
:103E90001340019288686268019F920E3A4067461B
:103EA0003F6893420ED1BD420CD186420AD35B19C2
:103EB000FA254868AD00861B07486B437043000D28
:103EC000C018FEBD3D0013000600E3E7840C00208F
:103ED00010E000E000ED00E05555000070B5041E54
:103EE00010D0FFF7CBFF050000F01CF8FFF7C6FF6E
:103EF000054B401B9842F7D9FA23013C9B00ED1873
:103F0000002CF3D170BDC046E703000070470000ED
:103F100010B5034A13680133136000F04BFA10BD6B
:103F2000840C002070470020704700001E2270B5EE
:103F300046484749436893431C3A13434360082368
:103F40008C6923438B61434C434B9C829C8A144372
:103F50009C82DC681442FCD00124404A147015781D
:103F6000254203D055786DB2002DF8DB0124946012
:103F7000547864B2002CFBDB394C5460547864B242
:103F8000002CFBDB8224E4015480547864B2002CC2
:103F9000FBDB02249C840E34DD682542FCD0314CCE
:103FA000DC621024DD682542FCD09D8C2E4C2C4315
:103FB0009C841024DD682542FCD002249D8C802640
:103FC0002C439C844024DD683542FCD0DD682542CA
:103FD000F9D01024DD682542FCD000249460547888
:103FE00064B2002CFBDB214C5460547864B2002C8A
:103FF000FBDB1C6A1E4D2C4080251C621C6AAC43F6
:104000001C62032393601B4B536053785BB2002BFD
:10401000FBDB0023FF240B72174A4B728B72CB72AF
:10402000164B1A60164B174A1B6811689A065B01FB
:10403000C90E2340520F12020B431343124A138539
:10404000802342681343436070BDC0460040004176
:10405000000400400C06000000080040000C004076
:1040600001050100B905FF7D040A000000070300F7
:10407000FFFCFFFF03060100006CDC0208000020CB
:10408000246080002060800000400042FA21314B13
:1040900010B51868890001F0FDF92F4B01389842DE
:1040A00056D82E492E4A4860C020136A00061B02CB
:1040B0001B0A03431362002407238C600B608021DA
:1040C000136A09061B021B0A0B431362FC22254BD1
:1040D000196A0A431A62FC22196A92010A431A6297
:1040E000A022196AD2020A431A62E0B20021013406
:1040F00000F076F80F2CF8D11B4B1C005A7852B206
:10410000002AFBDB194A5A80194B1A00597EC9094B
:104110000129FBD0E421C90099803F21D970537E49
:10412000DB09012BFBD0C02300205B0113619070E1
:1041300000F024F863785BB2002BFBDB0D4B0E4ADA
:104140006380D379DB09012BFBD04123537010BD71
:10415000FEE7C04608000020FFFFFF0010E000E07F
:1041600000ED00E000040040000C00401E40000094
:10417000004000422140000000480042164A00B5BD
:104180001300517EC9090129FBD00138042816D833
:104190001969124A0A400F211A615A788A4301F0BC
:1041A0006FF90308060B0300110001220A435A703D
:1041B00000BD11000322F9E711000222F6E7F02307
:1041C00011691B050B430F21136153788B431900B1
:1041D00002230B435370EBE700400042FFFFFFF068
:1041E000182330B51D00040045430820204A551906
:1041F0002856013014D0032912D808006343D15641
:10420000D31801F03DF902280E1B5868CB0102219A
:10421000184A9B181A1840321170012282405A60C5
:1042200030BD5868CB010621124A9B181A1840323B
:104230001170012282405A609A61F1E75868CB01FF
:1042400006210C4A9B181A18403211700122824034
:104250005A605A61E4E75868CB010221054A9B186D
:104260001A1840321170012282409A60D8E7C04685
:10427000605E0000004400411823F0B50824584354
:10428000114A13181C5701341BD0012635005F68F2
:104290008356BD400D4ADB019A18906805420BD148
:1042A0000C00601E8441D21940321078344003362D
:1042B000A400B04320431070044A9B18002901D188
:1042C0005D61F0BD9D61FCE7605E0000004400415F
:1042D00018224243F8B52C4E0300B218127A52B29B
:1042E000140001320ED0481C00240C280AD801F01A
:1042F000C7F80720202020202020200B0B0B0B00CC
:10430000012464422000F8BD092905D10021D8B25A
:10431000FFF766FF0024F5E70A2902D1D8B2083971
:10432000F6E700240B29EDD1D8B20A39FFF758FF80
:10433000E8E718204343F2185568F3562C00134A57
:10434000DB016E0817389B18C9B204409E19002C77
:104350000DD00F2430363278090122401143C9B202
:104360005B19317040331A7810431870D2E732006D
:104370000F27303216785B19BE433143117040333A
:104380001A7810431870BDE7605E000000440041D9
:1043900010B50400FFF7BAFD014B1C6010BDC0460C
:1043A0000C0000200122024B52421A607047C046A6
:1043B0000C000020164A10B51368591C26D0013B8A
:1043C0001360002B22D172B6124B134A043393426E
:1043D00013D9124A01211000147D0C42FCD0202177
:1043E000148BFF319B085B0021431183D3610C4B7D
:1043F00013800123027D1A42FCD0BFF34F8F094B7B
:10440000094ADA60BFF34F8FC046FDE710BDC046D2
:104410000C000020002000000302000000400041CA
:1044200002A5FFFF00ED00E00400FA050023037180
:10443000016070479446F0B59E1E721E964162461A
:10444000056892072F6836063A4332432A600725EB
:1044500005AC24780068A401294021434268002467
:10446000022B00D05C03114321434160F0BD30B505
:10447000C0250368AD031C6812052A402243C024EE
:104480000904A40221401143196003685A681443C7
:104490005C6030BD0123026811680B431360036840
:1044A0001A68D207FCD4DA69D207F9D4704702231C
:1044B000026811680B4313600268D3699B07FCD440
:1044C00070470268137E9B0702D40379002BF9D151
:1044D000002303717047002203685A837047036802
:1044E000187E4007C00F70470368187EC0097047E8
:1044F000802302685B42117E0B431376704703688A
:10450000588B8007C00F704702230268518B0B4302
:10451000538370470368187EC007C00F7047036855
:10452000188DC0B2704703681A7ED207FCD589B2D5
:1045300019850123037118007047012203689A75D9
:104540007047012203681A757047000070B5012694
:1045500004684B0833403140256809075B070B436B
:104560002B43236004685100034800F093FF013897
:10457000C0B2207370BDC046006CDC02012302682B
:1045800011680B43136003681A68D207FCD4DA6918
:10459000D207F9D470470223026811680B431360F5
:1045A0000268D3699B07FCD470470368DA699207F5
:1045B000FCD402211A688A431A607047036818689D
:1045C0004000C00F70470268936A5B0A5B021943A0
:1045D000916203681A7E5207FCD5986AC0B2704790
:1045E0000368214A30B593422FD0204A93422FD0FE
:1045F0001F4A93422FD01F4A93422FD01E4A934204
:104600002FD01E4A93421FD10E23192201210325C8
:1046100099401B48C024016099082B40AB40FC35F1
:104620009D4089000918A4000859A843C0259D4051
:104630002B0003430B518023DB011A43114B5A809B
:104640005A7852B2002AFBDB30BD09231422DDE781
:104650000A231522DAE70B231622D7E70C231722A9
:10466000D4E70D231822D1E700080042000C0042D5
:10467000001000420014004200180042001C0042DA
:1046800000E100E0000C0040F8B504000F00160047
:104690001D00FFF7A5FF2000FFF7FCFE1C21BB005B
:1046A0000B4071072268090C0B43136084232268B6
:1046B0009375012F1AD11021012E00D008390C4B0F
:1046C00069431868C00000F0E5FE07222168024037
:1046D0008B895203DB04DB0C13438B8122680304B8
:1046E0009089DB0C400B400318439081F8BDC04615
:1046F00008000020F7B50600019308AB1F780D00F5
:104700001400FFF73BFF3000FFF76AFFC0222405CB
:1047100092031440BA070C2717433C43C0270722D3
:10472000BF022D0433683D4025431D60019B316865
:1047300013401A0080239B0213434B60F7BD0120F6
:104740007047000010B50368014A1B6A984710BD06
:1047500013040000FC30006A704787239B00C018D8
:10476000C36880204000C01A70470300FC331A6AF7
:10477000002A03D0DB69C018007D70470120404249
:10478000FBE710B504000069FFF784FE2200002358
:10479000FC329361D361136287229200A418636094
:1047A000A360E36010BD872310B59B00C218D368D7
:1047B000002BFCD10069FFF784FE10BD0368002BBD
:1047C00002D162B6BFF36F8F7047F02001403039DD
:1047D000484248417047F0231B01194080230620BE
:1047E0009B0099420AD00133FF330130994205D032
:1047F000802302385B00994200D0002070470F20D0
:1048000001400020012903D00239481E8141481C83
:10481000704700008B23F0B5182685B002919B00ED
:104820000400C05C330008214343324D1700EB18ED
:104830005956FFF74DFD304B0821E05C33004343F0
:10484000EB185956FFF744FD2C4BE25C0393022A08
:1048500009D11133E05CFF2805D008214643AE1989
:104860007156FFF735FD8C26B600A05DFF2819D0E4
:104870000121FFF7B5FC1822A35D21495A43AB562D
:10488000AD18DB0158188D21890060501D490122A7
:104890005B188E218900635069688A408F218900E6
:1048A00062501A600122029B11002069FFF7ECFEA2
:1048B00039002000FFF78FFF390005002000FFF7C7
:1048C0009EFF390006002000FFF77FFF33000090B5
:1048D000290020690122FFF7ADFD0B4B2069E25C46
:1048E000039BE15CFFF7C3FD2069FFF7E0FD05B026
:1048F000F0BDC046605E00002D0200002F020000E7
:1049000018440041144400412E020000802210B5DA
:1049100004005200002100F0A7FE23000022FC3317
:104920005A6020009A60DA6010BD0000F0B585B0D2
:104930001D000AAB1B78040000930BAB1B7816001C
:1049400001930CAB1B780F0002930DAB1B78039304
:1049500000234360FA239B008360124B08330360FB
:104960001430FFF7D3FF20002130FF30FFF7CEFFD8
:104970008B236A469B002761E6540B4B1278E55463
:104980000A4B2000E2546A46094B1279E2546A4607
:10499000127A0133E2546A46127B1033E25405B0B6
:1049A000F0BDC046C06100002D0200002E020000D4
:1049B0002F020000F7B51D0008AB1B780400009320
:1049C00009AB1B781600019300234360FA239B0078
:1049D0008360114B0F00083303601430FFF796FF1C
:1049E00020002130FF30FFF791FF8B236A469B00A8
:1049F0002761E654094B1278E554094B2000E25434
:104A00006A46084B1279E2548C22313BFF3B9200FC
:104A1000A3541032A354FEBDC06100002D0200005B
:104A20002E0200002F020000F7B5EFF31083009371
:104A30000123019372B680260200FF25019BFC3200
:104A40007600013B5C1C0FD0D4685F1EB44209D0D5
:104A500054680155546801342C405460D4680134C2
:104A6000D460EEE73B00EDE768460193FFF7A6FE52
:104A7000F7BD13B5EFF3108300930123019372B6D2
:104A8000019B5A1E0192002B15D00300FC33DA68FB
:104A9000002A0DD09A68845C9A680132D2B29A607A
:104AA000DA68013ADA606846FFF788FE200016BD32
:104AB00001246442F7E701246846FFF77FFE644261
:104AC000F4E710B504000069FFF719FD002805D0D0
:104AD0002069FFF724FD2069FFF716FD2069FFF725
:104AE000FEFC00281BD02069FFF719FD0100200003
:104AF0001430FFF799FF8C239B00E35CFF2B0ED053
:104B00002300FC331A6A80235B009B1A092B06DC06
:104B10008D238F229B009200E358A2581A602069CF
:104B2000FFF7F8FC00280ED087239B00E318DB6812
:104B3000002B14D020002130FF30FFF79AFFC1B2C4
:104B40002069FFF7F0FC2069FFF7CEFC002805D0B4
:104B50002069FFF7CDFC2069FFF7BDFC10BD20697F
:104B6000FFF7EFFCEFE70000F8B5040000690D0067
:104B7000FFF7D0FC87239B00E618002802D0F368DB
:104B8000002B34D001278022F3685200934223D1B6
:104B9000EFF310833B4210D1174B5B68DB05DB0D55
:104BA000F1D0103B5BB2002B10DAF13A1340083B16
:104BB0009B08124A9B009B181B682069FFF7AAFC00
:104BC0000028E0D02000FFF77CFFDCE79B08C03323
:104BD0000B4A9B009B58F0E720002130FF30290052
:104BE000FFF722FF2069FFF7A8FC0120F8BD29008C
:104BF0002069FFF798FCF8E700ED00E01CED00E00D
:104C000000E100E010B504001430FFF732FF8C2300
:104C10009B00E35CFF2B0ED02300FC331A6A802339
:104C20005B009B1A0A2B06DD8E238F229B009200CD
:104C3000E358A2581A6010BD10B500F0F3FC10BD87
:104C40000020704770B50F26CB1D0139020032409D
:104C5000D5B22C0000093034092A00DD07341C705D
:104C6000013B8B42F2D170BD10B50C000B4B1868A4
:104C7000FFF7E8FF21000A4B08311868FFF7E2FF51
:104C80002100084B10311868FFF7DCFF2100064BAC
:104C900018311868FFF7D6FF202010BD0CA0800047
:104CA00040A0800044A0800048A0800008B4024BCF
:104CB0009C46103808BC6047694C0000704770473C
:104CC0003F20704713B56B460268D97107335468AB
:104CD00019000122A04716BD70B50A260B7892B0C4
:104CE0006E44023305000B703C220021300000F0BE
:104CF000BBFC394801AC06903848242107900620B7
:104D000020776846364AA1742281364A364BA28102
:104D1000FD3AFF3A8018C177684623390630C177DB
:104D200068460730C17702A8C1770720F2770326CB
:104D300008316944C87703A9CE7710212B366E4419
:104D40003170092621851F3169440E700CA9053E7A
:104D50000E7033212380022369440B7006360DA99F
:104D60000E7022493536A1863B216E44307010A862
:104D70006274E27702703D3269446A440B701370CA
:104D800040210022E37023716371A37341336B44AC
:104D9000218719705A702B7DC039A370A372637775
:104DA0000133DBB2A3776A7D0B200D006844154305
:104DB000C5773120684403703A23501C6B44187047
:104DC000412302320A436B441A70210042220848F0
:104DD00000F0AEFA12B070BD1001042402060524E2
:104DE0000904000001020000080B00000705000094
:104DF000E40C002008B4024B9C46103808BC604705
:104E0000D94C000070B5027D0B790C0000259A4248
:104E10000BD10B784E78A12B09D1212E05D1072279
:104E20001B491C4800F084FA0135280070BD212B75
:104E3000FBD1202E22D107221549164800F0BAF9DD
:104E40009622134BD200196891421DD1DB79DB0702
:104E50001AD4FA20FFF79CFA00210E4800F092FACB
:104E60000125232EE1D1E378A2781B0213430A4ADD
:104E700000210848136000F085FAD6E7222EEFD112
:104E80008A78034BDA71DBE7FFF78CFAE4E7C04678
:104E900014000020E40C00201000002008B4024B95
:104EA0009C46103808BC6047054E000010B508222B
:104EB0000021024800F0D8FB10BDC04614000020BD
:104EC00010B5417D006A013100F0ACF8034B1B685E
:104ED00001335A1E9341181810BDC0461C00002013
:104EE00010B5417D006A023100F0B2F810BD10B576
:104EF000417D006A023100F079F810BD70B50D00F7
:104F0000417D0400130002312A00006A00F066F9B6
:104F1000002801D10123636070BD000010B5054C6D
:104F200023685A1C04D103685B699847030020601A
:104F3000180010BD1C000020074A0300106810B5BF
:104F4000411C03D001235B42136010BD597D186AD8
:104F5000013100F0F3F8F8E71C00002010B5FEF76F
:104F600087FFF423FF330024984207D9044B0A201B
:104F7000DC79631E9C41E4B2FEF7B0FF200010BD57
:104F80001400002000207047FA239B0010B58360B6
:104F90000F4B0022C3820300283383610D4B0400B2
:104FA0004260C2611800503323610830631D2162E2
:104FB0002060DA778323A362813BE362803323633B
:104FC00000F030FA2100103100F0FEF9200010BD91
:104FD00003020000F461000010B502490248FFF727
:104FE000D3FF10BDE40C0020880C00200B4BCAB28C
:104FF0000B488901C9185301C318596199690832CE
:10500000890B89039961036852019A180223D371AD
:105010005179823B0B4353717047C0460C0D002001
:1050200094110020084B8A00D05810B5002803D0F6
:1050300003689B68984710BDC9B2044B49015918D1
:1050400088688004800CF6E7E80C002094110020AA
:1050500010B50C00FFF7E6FF00280CD0064BE4B2B9
:105060001B68083464011C19802362795B42134376
:1050700063710223E37110BD94110020F0B51C0090
:105080002A4B85B01B6807000D000292002B4AD006
:10509000274B8A00D058002808D0036822005B689C
:1050A000029998470400200005B0F0BD3800FFF7D2
:1050B000B9FF844204D929003800FFF7B3FF040088
:1050C0000121EBB21B4E03935B010193F21893682D
:1050D0009B0B9B039360019A336802989B18FF33E4
:1050E0005A7A0A435A72144BA901C918220000F0D7
:1050F000B2FA002CD7D029003800FFF793FF002820
:10510000D1D14021039B326808335B01D318187951
:10511000014319710121D971019BD318FF339A7A88
:105120000A439A72BFE701246442BCE79011002051
:10513000E80C002094110020CC0E002013B56B4623
:10514000DC1D22000123FFF799FF012801D12078FF
:1051500016BD01204042FBE770B5CBB2124A13489E
:105160005C0189018918021951609168104D08335A
:105170000D40802149032943402591609168890BA6
:105180008903916001685A018A18167935431571AF
:1051900095796D06FCD55B01C918CB79DB07FCD589
:1051A00000198068C0B270BDCC0E002094110020A0
:1051B000FF3F00F070B50D0000211400FFF7CCFF99
:1051C000A04200D9200000230349A34203D0CA5CB7
:1051D000EA540133F9E770BDCC0E0020F0B51E0093
:1051E0003A4B85B01B680F000192002B35D080230D
:1051F000DB019E4231D80025354B8A01D31802933A
:10520000002E2CD0334B1B680393FF233B401C0024
:1052100000930834039B64011C19A379DB0921D096
:105220002D4B2E49186800F035F92D4B17215843A6
:1052300000F030F92B4BE279920713D4DA5D002AA3
:1052400001D10138F7D20122DA55009B5A01214BD6
:105250009B189A69920B92039A6101256D4228006E
:1052600005B0F0BD00221F4B3400DA553F2E09D99E
:10527000009B40245A01174B9B1880229969120603
:105280000A439A6122000199029800F0E4F9009B18
:10529000A1045A010F4B890C9B18029A2D195A61CF
:1052A0009A69361B920B92030A439A61009B039AF8
:1052B00008335B01D3180222DA715979823A0A4322
:1052C0005A71019B1B1901939AE7C0469011002067
:1052D0000C0D0020941100200800002040420F0017
:1052E00070110100040D002070B50D001C000D4B65
:1052F000AE01F61811003000220000F0ACF9EDB25A
:1053000009496D014D196E61AB69084A20001340CF
:10531000AB61AB69A2049B0B920C9B031343AB6183
:1053200070BDC0460C0D002094110020FF3F00F01E
:10533000F7B5104B01901B780F001500002B0CD116
:105340000D4B16001C78002C09D00C4E0C483488EC
:105350002018641900F07FF934802800FEBD002E6B
:10536000FBD03A19330000210198FFF7BDFF241844
:10537000361AF4E78C1000208D1100208E110020C9
:105380008D100020CBB204495B01C9188B699B0BBF
:105390009B038B617047C0469411002080235B0003
:1053A0000380002343600733037270478300014882
:1053B000C0187047BC0C0020014B024A1A607047AD
:1053C0009411002000500041F8B542788B790D000F
:1053D000017A9B18040000208B4222DC6368834220
:1053E00019D16560002623786A71EA792B719B18C0
:1053F0002370AB79B34213D9AB68B7006078DF197B
:10540000FFF7D4FF3B68013603606378F6B20133DF
:105410006370EEE70B00D9680029FBD1DD60E1E79E
:105420000120F8BD70B50126054D064C2B683342AE
:1054300003D12000FFF7B2FF2E60200070BDC046F0
:10544000981200209C120020F7B506000D000C00F9
:105450008B180193019B671B9C4207D0336821780E
:105460001B683000984701340028F3D13800FEBD96
:105470000B0010B50100180000F098F810BD0000F6
:1054800002B4714649084900095C49008E4402BCD7
:105490007047C046002243088B4274D303098B42F5
:1054A0005FD3030A8B4244D3030B8B4228D3030CF4
:1054B0008B420DD3FF22090212BA030C8B4202D396
:1054C0001212090265D0030B8B4219D300E0090ABE
:1054D000C30B8B4201D3CB03C01A5241830B8B42C7
:1054E00001D38B03C01A5241430B8B4201D34B03B0
:1054F000C01A5241030B8B4201D30B03C01A524115
:10550000C30A8B4201D3CB02C01A5241830A8B4299
:1055100001D38B02C01A5241430A8B4201D34B0282
:10552000C01A5241030A8B4201D30B02C01A5241E6
:10553000CDD2C3098B4201D3CB01C01A524183099A
:105540008B4201D38B01C01A524143098B4201D3D4
:105550004B01C01A524103098B4201D30B01C01AFF
:105560005241C3088B4201D3CB00C01A5241830879
:105570008B4201D38B00C01A524143088B4201D3A6
:105580004B00C01A5241411A00D201465241104606
:105590007047FFE701B5002000F006F802BDC046E5
:1055A0000029F7D076E770477047C04610B5040071
:1055B00004481300002804D00A000220210000E063
:1055C00000BF10BD0000000070B500260C4D0D4C52
:1055D000641BA410A64209D1002600F039F90A4D37
:1055E0000A4C641BA410A64205D170BDB300EB5851
:1055F00098470136EEE7B300EB5898470136F2E7DB
:10560000840000208400002084000020A8000020E6
:1056100010B5034B0100186800F078F810BDC046C3
:105620002000002010B5034B0100186800F024F89A
:1056300010BDC0462000002030B50024A24201D198
:10564000002005E0035D651C0C5DA34201D0181B22
:1056500030BD2C00F2E7002310B59A4200D110BDF6
:10566000CC5CC4540133F8E703001218934200D114
:10567000704719700133F9E770B50500002910D0A3
:105680000C1F2368002B00DAE418280000F0D0F883
:105690001D4A1368002B05D163601460280000F0D8
:1056A000C8F870BDA34209D9216860188342F3D1BC
:1056B00018685B6841182160EEE713005A68002AF9
:1056C00001D0A242F9D919685818A0420BD120681C
:1056D0000918581819608242E0D1106852684118C0
:1056E00019605A60DAE7A04202D90C232B60D5E793
:1056F00021686018824203D1106852684118216005
:1057000062605C60CAE7C046A8120020032370B53F
:10571000CD1C9D43083506000C2D1ED20C25A94238
:105720001DD8300000F084F8254A146821000029B3
:1057300019D1244C2368002B03D1300000F044F829
:1057400020602900300000F03FF8431C2BD10C23CF
:105750003000336000F06DF803E0002DDFDA0C2339
:105760003360002070BD0B685B1B19D40B2B03D971
:105770000B60CC18256003E04B688C420DD11360A0
:10578000300000F056F8200007220B30231D904314
:10579000C31AE7D05A42E250E4E763600C00EFE737
:1057A0000C004968C3E70323C41C9C43A042E1D01A
:1057B000211A300000F008F8431CDBD1C7E7C046CF
:1057C000A8120020AC120020002370B5064C050082
:1057D0000800236000F02EF8431C03D12368002B3F
:1057E00000D02B6070BDC046B4120020C9B203784F
:1057F000002B04D08B4200D170470130F7E74B42B9
:10580000594149420840F7E730B50500002A00D168
:1058100030BD0C78013A6B1C2C700131002C05D185
:105820009A189A42F4D01C700133FAE71D00EDE794
:1058300070477047044A1368002B00D1034B1818B7
:10584000106018007047C046B0120020B812002047
:10585000F8B5C046F8BC08BC9E467047F8B5C046CF
:10586000F8BC08BC9E4670475550444154452E42F2
:10587000494E00000000000000000000152200005A
:105880003922000029220000612200006923000063
:105890008D220000A12200002F007C3C3E5E2B3DAB
:1058A0003F2F5B5D3B2C2A225C00000000000000C3
:1058B00000000000AD34000049540000A52F000096
:1058C000E52B0000000000000000000000000000C8
:1058D00000000000000000000000000000000000C8
:1058E00000000000000000000000000000000000B8
:1058F00000000000000000000000000000000000A8
:105900000000000000000000000000000000000097
:105E0000080000001000000020000000400000001A
:105E100080000000000100000002000000040000FB
:105E2000010203000000000000000000653A0000CD
:105E3000D93A0000773A0000813A0000453A000064
:105E4000E53A0000293B0000653C0000653B00008E
:105E5000633A0000633A0000153C0000673A000016
:105E60000000000016000000080000001C000000F8
:105E7000FF000004000406000000000017000000FE
:105E8000080000001C000000FF00010401040700DE
:105E9000000000000A000000080000001C000000D4
:105EA000120000010001FF00000000000B000000D4
:105EB000080000001C000000130001010101FF00A8
:105EC000010000000A000000080000001C000000A3
:105ED000FF00000500050A00010000000B000000A3
:105EE000080000001C000000FF00010501050B0078
:105EF0000000000014000000080000002C0000005A
:105F0000FF00020002000400000000001500000075
:105F1000080000002C000000FF0003000300050043
:105F20000000000010000000020000001C00000043
:105F3000FF0000020002000000000000110000004D
:105F40000200000004000000FF00FFFFFFFF01004F
:105F50000000000013000000020000001C00000010
:105F6000FF0001030103FF00000000000800000023
:105F700003000000040000001000FFFFFFFF1000FE
:105F80000000000009000000030000000400000001
:105F90001100FFFFFFFFFF000100000017000000DD
:105FA0000300000004000000FF00FFFFFFFFFF00F0
:105FB00001000000160000000300000004000000C3
:105FC000FF00FFFFFFFFFF000000000002000000D5
:105FD00001000000060000000000FFFFFFFFFF00BF
:105FE00001000000020000000100000004000000A9
:105FF0000A00FFFFFFFF0200010000000300000095
:1060000001000000040000000B00FFFFFFFF030081
:106010000000000004000000010000001C0000005F
:10602000040000000000FF00000000000500000068
:10603000010000001C000000050001000100FF003D
:106040000000000006000000010000000400000045
:106050000600FFFFFFFFFF00000000000700000038
:1060600001000000040000000700FFFFFFFFFF0029
:106070000000000018000000060000000000000002
:10608000FF00FFFFFFFFFF000000000019000000FD
:106090000600000000000000FF00FFFFFFFFFF0000
:1060A00000000000120000000800000004000000D2
:1060B000FF00FFFFFFFFFF000000000003000000E3
:1060C0000800000004000000FF00FFFFFFFFFF00CA
:1060D000000000000C0000000300000000000000B1
:1060E000FF00FFFFFFFFFF00000000000D000000A9
:1060F0000300000000000000FF00FFFFFFFFFF00A3
:10610000000000000E000000080000000000000079
:10611000FF00FFFFFFFFFF00000000000F00000076
:106120000300000000000000FF00FFFFFFFFFF0072
:10613000000000001B00000008000000000000003C
:10614000FF00FFFFFFFF0F0001000000080000003C
:1061500008000000060000000200FFFFFFFFFF0034
:10616000010000000900000001000000180000000C
:106170000300010401040900000000000000000009
:106180000800000000000000FF00FFFFFFFFFF000D
:1061900000000000010000000800000000000000F6
:1061A000FF00FFFFFFFFFF00000000001C000000D9
:1061B0000800000004000000FF00FFFFFFFFFF00D9
:1061C0000000000000000000694B0000495400007E
:1061D0005B470000A747000055470000054C000042
:1061E0006B4700004547000015480000834700004A
:1061F0003F4700000000000000000000C54C000008
:10620000FD4E0000C14C0000E14E0000C14E0000F8
:10621000394F00001D4F0000BD4C0000BF4C000076
:10622000AD4E00005D4F0000EF4E0000D94C000065
:10623000414C0000054E0000694C0000F0FFFFFFDC
:10624000000000009D4E0000F54D0000854F00004D
:10625000AD4C000000000000000000000000000045
:10626000000000000000000000000000000000002E
:10627000000000000000000000000000000000001E
:10628000000000000000000000000000000000000E
:1062900000000000000000000000000000000000FE
:1062A00000000000000000000000000000000000EE
:1062B000000000000000000000000000FFFFFFFFE2
:1062C00040420F00FFFFFFFFFFFFFFFF00C2010082
:1062D00000000800FFFFFFFF240000200000000076
:1062E000746200009462000054620000000000002C
:1062F000000000000000000000000000000000009E
:10630000000000000000000000000000000000008D
:10631000000000000000000000000000000000007D
:10632000000000000000000000000000000000006D
:10633000000000000000000000000000DD20000060
:1063400001220000DD2600007D2700002539000025
:106350009D3C0000553D0000D94F0000B95300009E
:10636000B520000000000000000000000000000058
:10637000000000000000000000000000000000001D
:10638000000000000000000000000000000000000D
:1063900000000000000000000000000000000000FD
:1063A00000000000000000000000000000000000ED
:1080000000800020D1E20100B9E20100B9E20100E4
:108010000000000000000000000000000000000060
:10802000000000000000000000000000B9E20100B4
:108030000000000000000000B9E2010025E301009B
:10804000B9E20100B9E20100B9E20100B9E20100C0
:10805000B9E20100B9E20100B9E20100BDE20100AC
:10806000B9E20100B9E20100B9E201000511010025
:10807000B9E20100FD460100ED460100B9E2010050
:10808000B9E20100B9E20100B9E20100B9E2010080
:1080900051C20100B9E20100B9E20100B9E20100F8
:1080A000B9E20100B9E2010071A70100B9E20100E3
:1080B0000000000010B5064C2378002B07D1054BBB
:1080C000002B02D0044800E000BF0123237010BD44
:1080D0001003002000000000C89D0200044B10B5F2
:1080E000002B03D00349044800E000BF10BDC04688
:1080F0000000000014030020C89D0200002070470B
:10810000704710B504009930FF300BF0DDFD200002
:10811000343007F019F92000243007F010FC20005B
:10812000143007F0AFFC201D07F0EEFC200010BD5E
:108130000A21435E0200181E01D01B01D0187047AF
:1081400010B5034801F0E6F8024803F052FB10BDF9
:108150002C0300203406002070B52D4D8AB02B680A
:108160002C4C032B3CD02C4E2C4A31002C4804F0D4
:1081700079FC2C49286007A815F021FF310004A8DC
:1081800015F01DFF04A907A816F010F80100200043
:1081900015F01EFE04A815F0C3FE07A815F0C0FEDA
:1081A000214904A815F00BFF310001A815F007FFC5
:1081B00001A904A815F0FAFF010007A815F07EFF39
:1081C00007A91A4801F0BCF807A815F0A9FE01A8F4
:1081D00015F0A6FE04A815F0A3FE154816F0E6F863
:1081E0002B68032B0ED11349200015F0D7FD0C4945
:1081F00007A804F022FC07A9200015F0FDFD0120CE
:108200000AB070BD0C49200015F0ECFD0020F7E726
:108210008806002034180020BF750200AB750200EC
:1082200098060020CB750200EE7502002C0300209A
:10823000983A0000007602001B76020010B508494B
:10824000084815F0CFFD084801F017F9BFF34F8F2C
:10825000064B074ADA60BFF34F8FC046FDE7C046C2
:108260009B760200341800202C03002000ED00E073
:108270000400FA051FB5154901A815F0A0FE144C1D
:1082800001A9200001F018FF01A815F049FE200007
:1082900002F04CFD031E0F4814D10F4915F0A2FD4A
:1082A00008220E4920001DF0B7FC200020221030CB
:1082B0000B491DF0B1FCFA2320001B01E36003F021
:1082C0008DF81FBD074915F08DFDFAE7A074020077
:1082D000FC04002034180020AB740200DB740200A0
:1082E000E0740200EF74020070B5094C200000F049
:1082F000EDFFFFF7BFFF074D22002900064803F0FE
:1083000029FA29002200054800F0D6FD70BDC046BC
:108310002C030020FC04002034060020F40400207C
:1083200010B516F00DF8054B054A1B68D268C31A44
:10833000002093424041C0B210BDC046300600202C
:10834000FC04002070B506000D0086B0124903A899
:1083500015F035FE310003A815F028FF0F4915F080
:1083600032FF290015F022FF01000D4815F030FD05
:1083700003A815F0D5FD00220A4C0092012331001C
:10838000200003F0FEFE2900200015F000FD200073
:1083900004F0EDFA06B070BD3376020049760200B3
:1083A000341800206405002007B5CB0001680822BE
:1083B000C91868461CF07FFE0098019903B000BD03
:1083C00030B544688A1843680568AB4207D29142C9
:1083D00005D05D1C45600D7801311D70F3E78268A2
:1083E0001B1BD318836030BD70B5050008000C005E
:1083F0001DF033FC210002002800FFF7E1FF70BDF3
:10840000F0B51624070016001D0087B06C4430003C
:1084100029000A22002319F02DFD013C3032227080
:10842000300029000A22002319F024FD0D00060067
:108430000143ECD116236B441A1B21003800FFF7CF
:10844000BFFF07B0F0BD10B5426804680023A24228
:1084500003D2531C4360012311708268D3188360D8
:1084600010BD000070B504000C4B1D78002D0DD020
:108470005A788A4201D00233F7E75C212000FFF7E7
:10848000E2FF29002000FFF7DEFF05E00029F9D117
:1084900003492000FFF7A8FF70BDC046CC7602005C
:1084A000DB7602007F22F0B5037A8DB005000C0068
:1084B0001340062B00D11CE206D8022B0DD3032B50
:1084C00000D9EFE106CDA5E10C2B24D007D8082B6D
:1084D00000D10BE20A2B00D1F5E1D4490EE2202BAA
:1084E00000D1B3E1402BF8D15B212000FFF7ABFFB7
:1084F0002D68002D00D191E121002800FFF7D2FF67
:108500002800FFF715FE051E00D187E12C21200071
:10851000FFF799FFEDE7456807682B003A00380040
:10852000290019F01BFC0028D7D0002200233800B6
:10853000290019F013FC00280DD13A002B00380057
:1085400029001AF0B5FD02000B003800290019F0CF
:1085500005FC0028C1D1002200233800290019F0B1
:1085600003FC002806D02D212000FFF76CFF80239C
:108570001B06ED180022AE4B3800290019F012FC42
:1085800000286BD00023082601930133FF330293A8
:10859000A84B310006A80693FFF706FF02000B0068
:1085A0003800290019F0FEFB002813D0A24B31003F
:1085B00006A80693FFF7F8FE02000B00380029001A
:1085C0001BF09CFC029A070094460D00019B63443B
:1085D0001BB20193029B5B100293013ED8D2002292
:1085E00000233800290019F0D3FB00283CD0934A1F
:1085F000934B3800290019F0C1FB0396002833D0B3
:10860000731C31D08C4B039906A80693FFF7CCFE60
:1086100000228C4B1BF072FC3A002B0019F0B8FBC7
:10862000002812D0834B039906A80693FFF7BCFEDF
:1086300002000B00380029001BF060FC0D00019BBC
:10864000029A0700981A03B20193029B013E5B1045
:108650000293039B76B2013B0393D1E780235B0037
:10866000029308260190BAE73800290019F064FC4B
:10867000092306000593744B029004936B461B7DFF
:108680005BB20393059B013BDBB20593092E0AD92C
:108690000A21049819F0C4F90A210490300019F055
:1086A000BFF90600EAE702981CF06EFA02000B0020
:1086B000380029001BF094FE060004980F001CF0FF
:1086C00063FA02000B00300039001BF017FC0F00AA
:1086D000060019F031FC05001CF056FA02000B00F0
:1086E000300039001BF07CFE0B0002001AF0E0FCA9
:1086F00019F022FC049B4519AB420FD80025029BC0
:1087000001330293019BAB4208D0029B092B05D990
:108710000198013003B20193012302930A2631002C
:10872000280019F003FA00290CD1039B002B09DD66
:108730002800310019F074F9039B0500013B5BB27E
:108740000393ECE716260A2706ABF61802983900C1
:1087500019F0ECF9013E303131700298390019F00E
:108760005FF90290031EF1D106AA16339B189A1BDB
:1087700031002000FFF724FE039B002B20D01E00B9
:108780000AAF013E76B2013F731C0BD028000A21CC
:1087900019F0CCF93031397028000A2119F040F96C
:1087A0000500EEE76B461B7B1025D9432E224B19A3
:1087B00006A8C2540AAB4A4220005918FFF700FE2F
:1087C000019B002B2ED065212000FFF73CFE6B465D
:1087D0009D88019B002B05DA2D212000FFF733FE39
:1087E0006D42ADB2162306AA9B181E000A27280068
:1087F000390019F09BF9013E303131702800390001
:1088000019F00EF985B2002DF1D11623310006AA18
:108810009B189A1B2000FFF7D3FD03E05D21200089
:10882000FFF711FEA0680DB0F0BDC046E276020071
:10883000D01263415874020010740200F168E3889A
:10884000B5F8E43E0000244000CA9A3B7B2120009A
:10885000FFF7F9FD2D68002D22D022212000EE68BF
:10886000FFF7F1FD3178002904D020000136FFF731
:10887000F9FDF7E722212000FFF7E5FD3A2120006E
:10888000FFF7E1FD21002800FFF70CFE2800FFF7AD
:108890004FFC051E04D02C212000FFF7D4FDDAE7A1
:1088A0007D21BCE70768466822212000FFF7CBFD49
:1088B000BE19BE4205D039782000FFF7D3FD01373D
:1088C000F7E72221ABE706684768002F08DA2D2179
:1088D0002000FFF7B8FD32003B00002756429F41C1
:1088E00032003B002000FFF78BFD9BE702684368E6
:1088F000F8E703780349002B00D103492000FFF774
:1089000073FD8FE7E7760200EC76020070B52A4C23
:108910001830A5440024FFAB34330CAE09A90993E9
:108920000A960B94FFF7BEFD244B0500984205D82C
:10893000FFAB3433224A1B189B181C70214C224970
:10894000200015F02BFA0A222900200015F0A5FAC4
:108950003100200015F046FA1C4909A815F02FFB3C
:108960001B4906A815F02BFB06A909A815F01EFC4B
:10897000010003A815F0A2FB06A815F0D1FA09A87A
:1089800015F0CEFA0022134D0092012303A928000E
:1089900003F0F7FB3100280015F000FA280003F07F
:1089A000E6FF200015F00CFA03A815F0B9FA8623AB
:1089B000DB009D4470BDC046D0FBFFFFFF030000FD
:1089C00000FCFFFF34180020597602006276020096
:1089D000FC04002064050020F7B5037A0E001700A0
:1089E0007F211A0005000A4005D18B435F390B43F4
:1089F0000372026042602B7A9B0601D40020FEBD08
:108A0000002EFBD02C68002C18D0E36830000093B7
:108A10001DF023F9009B0190002B2AD018001DF0B7
:108A20001CF9019B984227D1002383420DD0009A64
:108A3000F15CD25C91421FD10133F6E77B68B868E4
:108A40001033984203D201233B742000D7E710383B
:108A5000B8600028D2D06B68002B08D0C21A12115F
:108A60005A810023686043810372C660C7E72860AB
:108A7000F7E7019B002BE8D02000FFF759FB04002B
:108A8000C1E70000F0B52A4C2A49A5442A4815F050
:108A9000A9F92A4F02A8390015F091FA284E02A927
:108AA000300000F0A3FC02A815F03AFA0CAB0293D8
:108AB000039383231B016B44049383231B016B44A7
:108AC000059300256B461D7609236B44DD7702AACA
:108AD0001C4908A8FFF780FF0400A84208D07F22A5
:108AE000037A056093431A004023134303724560E1
:108AF00002AB0193210002AA30003B00009400F079
:108B000053FF0099019A104802F0B7FE002C0CD0D8
:108B100020680024002803D00134FFF709FBF9E79F
:108B2000002C02D002A8FFF7F1FE084B9D44F0BDD7
:108B3000CCF7FFFF6C76020034180020FC04002004
:108B40002C03002083760200340600203408000045
:108B500070B5114801F079FA104C200000F09EFB2E
:108B60000F4D10492A00200016F048F80E4802F078
:108B70008EFD0E4800F09FF90D4E300004F0AAF96A
:108B80000C4C3100200003F05BF92A000A49200058
:108B900016F034F870BDC046FC0400202C03002001
:108BA000000000200381000034060020F4040020AF
:108BB000700600206405002031BD000070B505007E
:108BC0008EB003A80C0014F0C3FF290003A814F012
:108BD000E9FF3B490BA815F0F2F9290008A815F0A8
:108BE000EEF908A90BA815F0E1FA364E01003000A5
:108BF00015F0EEF808A815F093F90BA815F090F908
:108C0000314908A815F0DBF9290005A815F0D7F9B6
:108C100005A908A815F0CAFA01000BA815F04EFA2C
:108C20000BA92A4800F08CFB0BA815F079F905A8D0
:108C300015F076F908A815F073F9254D254A26494F
:108C4000280003F015F9254BA2B20B93049B0BA946
:108C5000280001930C9303F04BFE041E06D120491B
:108C6000300015F0BFF820000EB070BD1D4928007F
:108C700003F0ECF800221C49280003F0C1FC1B495A
:108C80000BA815F09CF91A4908A815F098F908A93D
:108C90000BA815F08BFA174915F095FA0022010080
:108CA000280003F015FD08A815F03AF90BA815F0F7
:108CB00037F91149300015F095F80120D4E7C04686
:108CC000FF74020034180020217502002C030020DC
:108CD00064050020337502004C75020038920200D2
:108CE00054750200358E00006C7502007C75020020
:108CF000FC040020797502008675020010B500247E
:108D00000A4803F021F900280FD1094B1B68A34240
:108D100001DCFFF793FA0134FFF71EFA0028EFD0C9
:108D200004490548FFF74AFFEAE710BD6405002043
:108D3000040000205B0700008C760200962130B50D
:108D4000890191B0274813F0F9FAFA20C00015F014
:108D50002DFBFFF7C9FAFFF7FFF90AAC224D0028F7
:108D600014D0224B29005A68200062609A68A260E1
:108D7000DA68E2601E4A0A921A7C22745A8A628277
:108D80001B7D1C4A23751C4B00F0F2FFFFF7B6FF5A
:108D90001A4904A815F013F9290001A815F00FF9D4
:108DA00001A904A815F002FA0100200015F086F9C7
:108DB000290007A801F09CF907A92000FFF7C2FAD3
:108DC00007A815F0ADF8200015F0AAF801A815F0D5
:108DD000A7F804A815F0A4F8094800F039FB11B071
:108DE00030BDC04634180020FC040020700600206E
:108DF000B87D02008C760200E4070000F2760200E3
:108E00002C03002010B5094803F05CFAFFF776FF49
:108E1000FFF796F9FFF784FA002805D015F090FACD
:108E2000034B1860FFF72EFE10BDC04664050020FE
:108E30003006002010B5194C8CB02100684603F0B4
:108E400007F8174903A815F0BAF8200002F056FFFA
:108E5000002807D0200002F058FFC1B203A815F087
:108E60009CF9F2E7694606A815F028F903A909A8B4
:108E700015F024F909AA06A90A4800F0BBF909A8C7
:108E800015F04EF806A815F04BF803A815F048F8B1
:108E9000684615F045F80CB010BDC04664050020CA
:108EA000DA760200F404002010B515F09AF9434276
:108EB0005841C0B210BD704706C0704710B50400DD
:108EC000006802F08BFA606800F0D7FABFF34F8FAA
:108ED000034B044ADA60BFF34F8FC046FDE7C0463C
:108EE00000ED00E00400FA05FA220368120170B5F3
:108EF000DA60012304000268144D303213700268F6
:108F00002900313213700268323213700268333232
:108F100013700268343213700268353213700268BD
:108F2000363213700068102237301CF075FE20684E
:108F30001022290047301CF06FFE206810225730A5
:108F400029001CF069FE2000FFF7B8FFDA76020066
:108F5000FA220368920070B5DA6000230400026808
:108F6000144D3032137002682900313213700268D8
:108F70003232137002683332137002683432137065
:108F8000026835321370026836321370006810229E
:108F900037301CF041FE20681022074947301CF092
:108FA0003BFE20681022573029001CF035FE2000BF
:108FB000FFF784FFDA7602002178020010B5040082
:108FC000002308000822216815F01FF92000FFF790
:108FD00075FF10B50400080021680023103120221D
:108FE00015F013F92000FFF769FF0000F0B50D0040
:108FF00087B004006D492800160015F0F2F800282B
:1090000002D02000FFF75AFF6949280015F0E9F85F
:10901000002804D0606800F01BFA07B0F0BD654975
:10902000280015F0DEF8002807D0310003A815F05D
:1090300045F803A92000FFF7C1FF5F49280015F09C
:10904000D0F8002807D0310003A815F037F803A99D
:109050002000FFF7BEFF5949280015F0C2F800288C
:1090600005D03000246815F009F9E060D5E75449CF
:10907000280015F0B6F8002809D052493000FFF753
:1090800013FF421E9041236830331870C5E74E49E4
:10909000280015F0A6F8002808D04A493000FFF74C
:1090A00003FF2368421E90413133EEE74749280011
:1090B00015F097F8002808D042493000FFF7F4FE79
:1090C0002368421E90413233DFE74149280015F002
:1090D00088F8002808D03B493000FFF7E5FE2368F8
:1090E000421E90413333D0E73A49280015F079F811
:1090F000002808D033493000FFF7D6FE2368421E0F
:1091000090413433C1E73449280015F06AF800284B
:1091100008D02C493000FFF7C7FE2368421E90415B
:109120003533B2E72D49280015F05BF8071E08D04B
:1091300024493000FFF7B8FE2368421E90413633C1
:10914000A3E72749280015F04CF80190002803D028
:10915000216837313B0008E02249280015F041F82A
:10916000071E07D02168019B47311022300015F0FF
:109170004CF852E71C49280015F033F8002802D0BB
:1091800021685731E6E71949280015F02AF8002828
:1091900002D02000FFF7A8FE1549280015F021F89D
:1091A000002800D139E72000FFF7D2FEFF76020049
:1091B000077702000E77020015770200237702007E
:1091C00030770200EC760200507702006D770200E3
:1091D0008A770200A2770200BA770200D2770200F3
:1091E000F3770200FA7702000178020009780200A2
:1091F0001978020030B58BB08B680400150001A807
:109200000E2215F01DF8154907A814F0D8FE01A983
:1092100007A814F0CBFF0100114814F0D9FD07A8EE
:1092200014F07EFE01A904A814F048FF290007A845
:1092300014F044FF07AA04A92000FFF7D7FE07A8EF
:1092400014F06EFE04A814F06BFE206802F0C6F85D
:1092500001A814F065FE0BB030BDC04625780200B1
:10926000341800204A688B681032934204D20123DC
:109270000B74002318007047103B8B60002BF9D053
:109280004268002A08D0991A0911518100224360CE
:109290005A811A72DA60EDE70360F7E710B504004F
:1092A00006F0DCF8DE231E225B00E2506D3BA332A9
:1092B000FF3BFF32A3500432A3500023143AA350C3
:1092C0000432A35004322000A35010BD00220D4BE5
:1092D00070B504001A7006F0BBF90B4D002804D1DC
:1092E0000A49280014F07EFDFEE7206808F071FAB4
:1092F0002068642108F0B4F92800054914F072FDD3
:1093000070BDC046AC090020341800205E78020011
:109310008778020070B5050014350400280006F0B7
:10932000E4FB00280BD0230022002100B933B53222
:10933000B131FF33FF32FF31280006F0C9FB70BDA9
:1093400070B505001535FF3504000E00280000211A
:1093500009F031FAE223E0225B00E3585200A35007
:10936000043AA2586B82064BFC342A822800E3623E
:10937000012109F0D6FC3100280014F008FD70BD71
:1093800000F800F8F8B5050003000122E02604000B
:109390001535FF355242FC3376000F002800DA62A3
:1093A000012109F0BEFCA35FDE225200A258390061
:1093B0006B822A82280014F0EAFCA3590A33A351D5
:1093C000F8BD70B505001535FF35040000212800F3
:1093D00009F0F1F9E223E0225B00E3585200A350C8
:1093E000043AA2582A826B8270BD0000F0B50400D6
:1093F000250026000F0085B0FFF7E3FF1535124B5F
:10940000FF35FC36F3622800022109F08AFC0F497F
:1094100001A814F0D4FD390001A814F0C7FE010022
:10942000280014F0B4FC01A814F07AFD01235B427B
:10943000F3620121280009F074FCE0225200A358D5
:109440001E33A35005B0F0BD00F800F8AE7802005E
:10945000962110B56830C8228900040006F0E9F9A9
:10946000C82120000A00490006F0E3F9C8212000C5
:109470000A00890006F0DDF910BDC82110B568307A
:109480000A008900040006F0D4F9C82120000A006F
:10949000490006F0CEF9C8222000110006F0C9F9F3
:1094A00010BD1206DBB2120C1A43FF239930FF30B5
:1094B00010B504001B0409041940114305230022C0
:1094C0000AF0D9FC20000AF014FC10BD9930FF30DE
:1094D00010B504000AF059FC20000AF00AFC10BD87
:1094E000F7B50300002000910192814207D01E6869
:1094F000864205D17F220B7A013093430B72FEBD69
:10950000019D9A6828686C688318A3420CD3531C89
:10951000A868E318834228D901232B747F220B7A91
:10952000002093430B721CE01B78002B08D19A4259
:109530000DD0F75CBC46C75CBC4501D10133F6E7F2
:1095400003001C7801331800002CFAD1DBE7002857
:10955000DDD07F240B7AA3431C00052323430B7229
:1095600005C1431E9841C0B2C9E76B60002CD5D03D
:1095700000239A4203D0F05CE0540133F9E7002362
:109580002000A354E5E70000F0B58FB0070000917C
:10959000080001921E00002962D011001500FFF79B
:1095A00061FE041E09D07F22037A93431A00202310
:1095B00013430372002303604360211E05D02A4930
:1095C0002A002000FFF708FA01002A003000FFF708
:1095D00087FF2649159814F004FE00280BD1211EA0
:1095E00005D023492A002000FFF7F6F901002A00E0
:1095F0001598FFF775FF002C05D020002A001D49A3
:10960000FFF7EAF904002A0021001498FFF768FF29
:1096100031000BA814F052FD17490BA814F0D3FD2C
:10962000149914F0C3FD154914F0CDFD159914F0EB
:10963000BDFD010008A814F041FD0BA814F070FC5A
:1096400008A90BA814F03AFD0BA93800FFF79AFE01
:109650000BA814F065FC08A814F062FC0FB0F0BD74
:109660000D000C00A9E7C04638780200DA76020047
:109670004578020052780200EF7C02005087020019
:1096800070B506008EB0029108A81349039214F039
:1096900096FC30000121243006F0ACF905AC0BAD8E
:1096A000011C0222200014F01EFD0C49280014F0B9
:1096B00086FC08AB0299039A300001950094FFF7ED
:1096C00063FF280014F02CFC200014F029FC08A8EB
:1096D00014F026FC0EB070BD587B0200CF7802005B
:1096E00070B506008EB0029108A81349039214F0D9
:1096F00066FC3000243006F0ADF905AC0BAD011C62
:109700000222200014F0EFFC0C49280014F057FC52
:1097100008AB0299039A300001950094FFF734FFDB
:10972000280014F0FDFB200014F0FAFB08A814F048
:10973000F7FB0EB070BDC0466C7B0200BA78020029
:1097400070B506008EB0029108A81349039214F078
:1097500036FC301D022106F037FA05AC0BAD011CBA
:109760000222200014F0BFFC0C49280014F027FC52
:1097700008AB0299039A300001950094FFF704FFAB
:10978000280014F0CDFB200014F0CAFB08A814F048
:10979000C7FB0EB070BDC0467D7B0200C2780200E0
:1097A00070B506008EB0029108A81349039214F018
:1097B00006FC3000343005F027FE05AC0BAD011C73
:1097C0000222200014F08FFC0C49280014F0F7FB53
:1097D00008AB0299039A300001950094FFF7D4FE7C
:1097E000280014F09DFB200014F09AFB08A814F048
:1097F00097FB0EB070BDC04699780200A6780200B3
:1098000070B506008EB0029108A81349039214F0B7
:10981000D6FB3000343005F0E5FD05AC0BAD011C86
:109820000222200014F05FFC0C49280014F0C7FB52
:1098300008AB0299039A300001950094FFF7A4FE4B
:10984000280014F06DFB200014F06AFB08A814F047
:1098500067FB0EB070BDC0469A7B0200AA7802007A
:1098600070B506008EB0029108A81349039214F057
:10987000A6FB3000343005F0D9FD05AC0BAD011C62
:109880000222200014F02FFC0C49280014F097FB52
:1098900008AB0299039A300001950094FFF774FE1B
:1098A000280014F03DFB200014F03AFB08A814F047
:1098B00037FB0EB070BDC046A67B0200AA7802003E
:1098C000D823F0B55B0097B0040004910592C1580D
:1098D00002220AA814F007FC0AA90DA814F0EEFB56
:1098E0002E4E0DA8310014F06EFCDA21070010ADE9
:1098F000490002226158280014F0F5FB29003800C5
:1099000014F054FCDC27310014F05DFC13AE7F0032
:1099100002220390E159300014F0E5FB3100039876
:1099200014F044FC010007A814F0C8FB300014F048
:10993000F7FA280014F0F4FA0DA814F0F1FA0AA8C6
:1099400014F0EEFA16490DA814F039FB07A801002F
:10995000280014F0B3FB1349300014F030FB0DABBA
:109960000499059A200001960095FFF70DFE30003E
:1099700014F0D6FA280014F0D3FA0DA814F0D0FA97
:10998000D822DA21002352004900A35007A86350CF
:10999000E35114F0C5FA17B0F0BDC046D778020005
:1099A000B27B0200D978020037B51C000091019209
:1099B00030331B780500002B01D0FFF761FE230038
:1099C00031331B78002B04D00099019A2800FFF74F
:1099D00087FE230032331B78002B04D00099019AB4
:1099E0002800FFF7ADFE230033331B78002B04D093
:1099F0000099019A2800FFF7D3FE230034331B7827
:109A0000002B04D00099019A2800FFF7F9FE2300EB
:109A100035331B78002B04D00099019A2800FFF7FA
:109A20001FFF36342378002B04D00099019A2800B8
:109A3000FFF746FF37BD000010B50400034B03607D
:109A4000483014F06DFA200010BDC0468C8702002B
:109A50004B6810B543608B6804008360CB68C360BB
:109A60001A4B03600B6903614B694361184B8361B7
:109A7000CB69C3610B8C0384CB1CDA7FC31CDA7700
:109A80004B6A43628B6A8362CB6AC3620B6B03636C
:109A90004B6B43630B0038331A78030038331A706A
:109AA000CB6BC3630B6C03640B0044331A78030065
:109AB00044331A700B0045331A78030045331A708B
:109AC0004831483014F0FAFA200010BD8C870200AB
:109AD0003892020070B50E008AB00500294907A827
:109AE00014F06DFA310004A8103114F068FA04A9DA
:109AF00007A814F05BFB010001A814F0DFFA04A82A
:109B000014F00EFA07A814F00BFA1F4C01A920005C
:109B100014F05EF901A928000AF0EAFB28000AF017
:109B2000EDFBC8280AD02000184914F05BF9002486
:109B300001A814F0F5F920000AB070BD290004A8AE
:109B40000AF0E8FC04A814F099FB114D11492860B3
:109B500007A814F034FA04A907A814F027FB0100A1
:109B6000200014F035F907A814F0DAF9B2682B6870
:109B700001249A4200DB002404A8E4B214F0D0F9D6
:109B8000D6E7C046757A020034180020877A0200B2
:109B9000080000209E7A0200F0B58BB01223214A03
:109BA00006000C0001A8204904F04CFA01A804F0BA
:109BB00006F9051E09D11D491D4814F013F930009E
:109BC0000AF066FA28000BB0F0BD002C0EDD6B46E3
:109BD000DF1C01223900300014F090F9002805D074
:109BE000397801A804F034F8013CEEE701A804F04C
:109BF000D9F830000AF04CFA002CE3DD09490A4894
:109C000004F072FA0A4D0B49280014F0C7F80A2232
:109C10002100280014F01EF92800074914F0E2F88A
